:100000000C94B00B0C94D80B0C94D80B0C94D80B0C
:100010000C94D80B0C94D80B0C94D80B0C94D80BD4
:100020000C94D80B0C94D80B0C9476180C94E818FC
:100030000C94D80B0C94D80B0C94D80B0C94D80BB4
:100040000C94D80B0C94C9220C94D80B0C94D80B9C
:100050000C94D80B0C94D80B0C94D80B0C94EC216A
:100060000C94D80B0C94D80B0C94D80B0C94D80B84
:100070000C94D80B0C94D80B0C94D80B0C94D80B74
:100080000C94DA230C94D80B0C94D80B0C94D80B4A
:100090000C94D80B0C94D80B0C94D80B0C94D80B54
:1000A0000C94D80B0C94D80B0C94D80B8120842082
:1000B000732077207B20A520A520A52088208C20D8
:1000C000902096209A20A520A0201C2121212621C5
:1000D00030213A2184218421842144214E21582138
:1000E00062216F218421772100000000007001004F
:1000F000C0000C00CAA77C0A42F5550853424819B3
:100100005EF55112003000000027450040941C00AD
:1001100014F3190504F11104200400000441100433
:1001200000040000104208015E14450F40F0010079
:100130005955551351555D0D8C927C085755550DE9
:100140005E55550D51520C015E55550F5655550FC4
:1001500000A0000000A4000000C2280080A2280027
:100160008062080040500D0000E318009C92241F9C
:100170005F555D0D9C1445115F1425075F555511A2
:100180005F5114015E54551D1F41101F40F445007E
:10019000100421071F41181D1F0441105EF0041FA9
:1001A0009C10041F5E54450F5F9214035ED4451FDC
:1001B0005F92341B5655550D41F005011F04210770
:1001C0001F4208011FE4410F1743181D07C1090111
:1001D00051564D1100F0450000F0010040F40100BF
:1001E00080100C00100441109075001E9074001EC9
:1001F0009073001E9071002880F090370078800086
:100200000A9036008C800014903500A080001E906B
:100210003400B4800028903300C88000329032004F
:10022000DC80003C903100F0800046903000FF8080
:10023000F05041555345004E4557205245434F52CB
:1002400044210000000000008080C0C0C0C0C08009
:100250000000008080C0C0C0C0800000008080C05E
:10026000C0C0C08000000080C0C0C0C0808000004E
:100270000080C0C0C0C0C08000000080C0C0C0C03E
:10028000C08000000000000000000000C0C0F8F8BE
:10029000C0C0C0C000000080C0C0C0C0800000005E
:1002A000FCFCFC0080C0C040400080C0C0C0C080DA
:1002B000800000C0C08080C0C0C08000000000007E
:1002C00000000000000000001D3D363636173F3F9D
:1002D00000000F1F3F303030391000000F1F3F303B
:1002E0003030391000000F1F3F3636363717000008
:1002F000111B333636363D1C0000111B33363636A3
:100300003D1C0000000000000000000000001F3F36
:100310003830303000000F1F393030391F0F0000E7
:100320003F3F3F07071F3C30200F1F3F3636363711
:100330001700003F3F3F0000003F3F00000000006B
:1003400000000000000000000000000000000000AD
:10035000000000000000000000000080C0E06060BD
:1003600060C0C0000060E0E08080E0E0600000E08D
:10037000E0C06060E0E0C0000060606062E7E7024B
:10038000000000E0E0C0C0606060000080C0E0608D
:100390006060C0C0000080C0E06060DEFEFE000063
:1003A000000000FCFC000000000000000000000055
:1003B000000000000000000000000000000000003D
:1003C000000000000000000000000000000000002D
:1003D0000000000000000000000000070F1F1B1BB2
:1003E0001B1B0B0000181C1F07070F1C180000FF29
:1003F000FFFF18181C1F0F0000000000001F1F0047
:100400000000001F1F01000000000000070F1F1B5D
:100410001B1B1B0B00000F1F1C18180F1F1F0000B9
:100420000000081D1D080000000000000000000082
:1004300000000000000000000000000000000000BC
:100440000000000000006060FCFC60606060000074
:10045000E0E0E00000E0E0E00000E0E0C0C060605C
:10046000600000FEFEFE6060E0E0C0000080C0E0D2
:100470006060E0C080000000000000006060FCFCE4
:1004800060606060000080C0E06060E0C0800000EC
:10049000FEFEFE80C0E06060600080C0E0606060E2
:1004A000C0C00000E0E0C0406060E0C0000080C06C
:1004B000E060606060C0000000FCFC000000000024
:1004C000000000000F1F1C18181800000F1F1F1835
:1004D000180F1F1F00001F1F010000000000001F59
:1004E0001F0F18181C1F0F0000070F1C18181C0FD7
:1004F000070000000000000000000F1F1C18181863
:100500000000070F1C18181C0F0700001F1F1F03F7
:10051000030F1E181000070F1F1B1B1B1B0B0000D7
:100520001F1F1F0000001F1F00000C0D191B1B1BAD
:100530001E0E0000081D1D080000000F0F03000F15
:100540000F030000000070888888880040A8A8A8D1
:10055000F000087E888800708888888800FE10086F
:1005600008F00000000000087E888800FE100808DF
:10057000F00070A8A8A830000000000000000000F3
:10058000000000000020F8202000C0202020C00033
:10059000F880402000C0A0A0A0C000E0402020C003
:1005A0000040A0A0A02000F8000000000000000013
:1005B0000000000000000000000000000000010238
:1005C0000200010202020100030001020001020216
:1005D0000200000300000003000202020201000208
:1005E000000000000000000000000000000000808B
:1005F000C06060600000000000000000000000001B
:1006000000000000000000000000000000000000EA
:1006100000000000000000000000000000000000DA
:100620000000606060C08000000000000080E07F8B
:10063000000000000080C0E070303070E0C080003A
:100640000000FFFF80C0E0703818000000FFFF309E
:10065000303030000080C0E070303070E0F0F000EA
:100660000000000000007FE080000000000107FEA5
:100670000000000000070F1C383030381C0F070046
:1006800000003F3F03070E1C3830000000070F1C1E
:100690003830300000070F1C383030381C1F3F3016
:1006A000000000000000FE07010000000000000143
:1006B0000306060600000000000000000000000025
:1006C000000000000000000000000000000000002A
:1006D000000000000000000000000000000000001A
:1006E00000000606060301000000007CFEC7FEFCB9
:1006F000C6FFFEFCC0C0E0E0E0E0E0E0C0C080C0BB
:1007000062321C0000000101030F0F03030F0F03EF
:100710000303030F0F03030F0F00007CFEC7FEFC53
:10072000C6FFFEFCC0C0E0E0E0E0E0E0C0C080C08A
:10073000C0623C000000010103030F0F03030F0F11
:1007400003030707030307070300007CFEC7FEFC43
:10075000C6FFFEFCC0C0E0E0E0E0E0E0C0C080809A
:100760000080F800000001010303030F0F030F0FC7
:10077000030F0F03030F0F030101007CFEDFFEFCDC
:10078000DEFFFEFCC0C0E0E0E0E0E0E0C0C080C012
:10079000C0623C00000001010303070703030707D1
:1007A00003030F0F03030F0F0300001C3262C0800E
:1007B000C0C0E0E0E0E0E0E0C0C0FCFEFFC6FCFE40
:1007C000C7FE7C00000F0F03030F0F030303030F8B
:1007D0000F03030F0F0301010000003C62C0C08043
:1007E000C0C0E0E0E0E0E0E0C0C0FCFEFFC6FCFE10
:1007F000C7FE7C00000307070303070703030F0F6F
:1008000003030F0F03030101000000F88000808044
:10081000C0C0E0E0E0E0E0E0C0C0FCFEFFC6FCFEDF
:10082000C7FE7C000101030F0F03030F0F030F0F1F
:10083000030F0F03030301010000003C62C0C080EE
:10084000C0C0E0E0E0E0E0E0C0C0FCFEFFDEFCFE97
:10085000DFFE7C0000030F0F03030F0F03030707E6
:1008600003030707030301010000004D454F570034
:10087000F00C0602E17979E102060CF000030604AF
:100880000908080904060300F00C069291F1F161D1
:1008900062060CF0000306040808080804060300BA
:1008A000F00C060279E1E17902060CF0000306047F
:1008B0000809090804060300F00C066261F1F191D1
:1008C00092060CF00003060408080808040603005A
:1008D00090480064800019904A0064800019904C90
:1008E0000064800019904D0064800019904F00C88A
:1008F00080F0464F5220234F4B54414E4531380033
:100900004F5A592D4341542056455220302E3034F1
:1009100000C0C6CFDFFFFB73037CFEFFC7E3FF7F92
:100920003E00FFFFFF1B1B1B03000303FFFFFF0332
:1009300003000000000000000000000000000000B4
:10094000000000000000000000000000008040A047
:1009500060A050B0F0101010202020408000000057
:1009600000E05CAA55AA55AA55AA55AAFF000000A6
:10097000000000000001021CE0073D6AD5AA55AA4C
:1009800055AA55AA55AB55AB55AB55AB55AB55AB69
:10099000FF00000000010306050A0D0A0D0A0D0AFA
:1009A0000D0A0D0A0D0A0D0A0F00000000000000DC
:1009B0000000000000000000000000000000000037
:1009C0000000000000000000000000000000000027
:1009D0000000000000000000000000000080C06077
:1009E000A060B050B0101010202020408000000007
:1009F00000E0BC56AB55AA55AA55AA55AA0000005E
:100A0000000000000001021CE0FFAA55AA55AA55EB
:100A1000AA55AA55AA55AB55AB55AB55ABD56B3DB1
:100A200007FFAA55AA55AA55AA55AA55FA0D0A0DA7
:100A3000060506030100000000FFAAD5AAD5AAD525
:100A4000AAD5AAD5FF0000000000000000000000A9
:100A500000FFAB55AB55AB55AB55AB55FF00000098
:100A6000000000000000000000FFAA55AA55AA558A
:100A7000AA55AA55FF000080402010101010101039
:100A8000F0FFAA55AA55AA55AA55AA55AB56A95082
:100A9000A0408000804020100FFFAA55AA55AA55FB
:100AA000AA55AA55EA556AD5AA55AA55AB56AC58C7
:100AB000F00F0A0D0A0D0A0D0A0D0A0D0F000000B5
:100AC0000103060D0A0D0A0D0F00000000000000D2
:100AD0000000000000000000000000000000000016
:100AE000009075001E9074001E9073001E9071009F
:100AF0002880F02D204F5A5A592054484520434110
:100B000054202D00004D41592032303138004144ED
:100B10004150544544204259204141524F4E504B80
:100B2000004F415554482E434F4D000052454C450F
:100B30004153454420554E44455200544845204DAC
:100B40004954204C4943454E5345004F524947496B
:100B50004E414C4C59204259204F424F4E4F00506D
:100B60004C41592054494D45202000504C415920BA
:100B7000434F554E5420005D20005B0042455354C6
:100B80002031302053434F524553004F4646004FCB
:100B90004E0053544152542047414D4500534F5548
:100BA0004E44200048492053434F5245530043527E
:100BB00045444954530000000000000000000000BC
:100BC00000F0E181010200040820408000000000E4
:100BD00000000000000000000000008040402020D5
:100BE00010101020C00000000000000000000000F5
:100BF00000000000000000000000000000000000F5
:100C0000000000000000C020101048A444021A3A5E
:100C10009201010D910D0101AA1A124234640810CB
:100C20001020C000000000000000000000000000D4
:100C300000000000000000000000000000000000B4
:100C4000603F0F0F1E0000000000000106080404B2
:100C500000040008080010080402010000004030F1
:100C60003C7EFF07010000000000000000000000C3
:100C70000000000000000000000000000000000074
:100C8000000080780601000080002000880022001B
:100C90000880F2F8F8F8F2C008002200880020006E
:100CA00080000001067880000000000000000000C5
:100CB0000000000000000000000000000000807E36
:100CC00000000000C0E0E030101010204080000064
:100CD00000F0000000804020101010103060C000B4
:100CE000000011264080000000000000000000000D
:100CF00000000000000000000000000000000000F4
:100D000000003FC00000000088002200880002C0F0
:100D1000FCFF3F3FBF3F3FFFFCC0020088002200B6
:100D20008800000000C03F0000000000000000003C
:100D300000000000000000000000000000598000DA
:100D4000000000030F1F1C18383838180C07E07813
:100D500032833278E0C3840C181818180C0F030083
:100D600000000080340300000000000000000000CC
:100D70000000000000000000000000000000000073
:100D8000000000030C10608000000280C880000397
:100D90008B002200080022000B03800048A04200C4
:100DA000008060100C030000000000000000000044
:100DB000000000000000000000000000000001042E
:100DC00008101020002020203030B8BC3E9F5F5F0C
:100DD0005F1F1F5F9F9F3F3E3CBCB83870301808B4
:100DE00008040200000000000000000000000000F5
:100DF00000000000000000000000000000000000F3
:100E000000000000000000000101020404090809BC
:100E10000B12101611161010090B0A080404020117
:100E200001000000000000000000000000000000C1
:100E30000000000000000000000000000000380278
:100E40000100000000000000000001073FF1C08029
:100E50001806069880413F1F070101C01610102098
:100E600040800000000000000000000000000000C2
:100E70000000000000000000000000000000000072
:100E80000000000000000000000000000000000062
:100E90000000000000000000000000000000000052
:100EA0000000000000000000000000000000000042
:100EB00000000000000000000000000000001E8094
:100EC00000000000000000C0000000000000010160
:100ED00003E703010000000020381B0000000000B1
:100EE00000FF000000000000000000000000000003
:100EF00000000000000000000000000000000000F2
:100F000000000000000000000000000000000000E1
:100F100000000000000000000000000000000000D1
:100F200000000000000000000000000000000000C1
:100F300000000000000000000000000000000000B1
:100F40000004081030301017001838787870787C5A
:100F50003813043C3E1E18010720203010080402FC
:100F60000100000000000000000000000000000080
:100F70000000000000000000000000000000000071
:100F80000000000000000000000000000000000061
:100F90000000000000000000000000000000000051
:100FA0000000000000000000000000000000000041
:100FB000000000000000080B00020202010009040A
:100FC00000000102020000052400100105240101B7
:100FD0000104240206052406000107058103100010
:100FE0004009040100020A00000007050202400057
:100FF00000070583024000000403090412010002F7
:10100000EF020140412336800001010203014172D9
:101010006475696E6F204C4C430041726475696E53
:101020006F204C656F6E6172646F000408020110DE
:101030004080401020408040800802040180402011
:101040001002011080102040402000000000250008
:1010500028002B002E0031000404040404030405BE
:101060000202020204030202020206060606060645
:1010700004040202020404030100F0FC0E06060E42
:10108000FCF00000030F1C18181C0F0300000C0CD0
:101090000CFEFE00000000001818181F1F1818187A
:1010A0000000181C0E0686CE7C380000181C1E1B83
:1010B0001918181800000C0CC6C6C6E6FC38000C3F
:1010C0001C18181818190F07000080C070380EFE81
:1010D000FE0000000303031B1B1F1F1B00007E7E7E
:1010E000666666E6C680000C1C181818181C0F07E8
:1010F0000000E0F8DC6C66E6C6860000030F1C18F2
:10110000181C0F0700000E0E060686F6FE1E0000D5
:101110000000001C1F070000000038FCC6C6C6C641
:10112000FC380000070F181818180F07000078FC8B
:10113000CE8686CEFCF00000181819190D0E070196
:10114000000000000200090F0000030401000C0071
:10115000000000000000000000000000000000008F
:1011600000000000240027002A002D003000D5F0E8
:101170008D14A1C881CFD9F1AF200014021302123F
:101180000215020702080204010C0106010000001A
:101190000000003E5B4F5B3E3E6B4F6B3E1C3E7C57
:1011A0003E1C183C7E3C181C577D571C1C5E7F5E05
:1011B0001C00183C1800FFE7C3E7FF0018241800C4
:1011C000FFE7DBE7FF30483A060E2629792926405B
:1011D0007F050507407F05253F5A3CE73C5A7F3E87
:1011E0001C1C08081C1C3E7F14227F22145F5F0019
:1011F0005F5F06097F017F006689956A60606060B5
:101200006094A2FFA29408047E040810207E20109F
:1012100008082A1C08081C2A08081E101010100CA8
:101220001E0C1E0C30383E3830060E3E0E060000F6
:1012300000000000005F00000007000700147F149A
:101240007F14242A7F2A1223130864623649562009
:10125000500008070300001C2241000041221C002E
:101260002A1C7F1C2A08083E0808008070300008ED
:1012700008080808000060600020100804023E51C1
:1012800049453E00427F4000724949494621414953
:101290004D331814127F1027454545393C4A4949BA
:1012A0003141211109073649494936464949291E24
:1012B0000000140000004034000000081422411413
:1012C00014141414004122140802015909063E4165
:1012D0005D594E7C1211127C7F494949363E41418D
:1012E00041227F4141413E7F494949417F090909E6
:1012F000013E414151737F0808087F00417F410052
:101300002040413F017F081422417F404040407F00
:10131000021C027F7F0408107F3E4141413E7F094D
:101320000909063E4151215E7F091929462649498E
:10133000493203017F01033F4040403F1F204020CE
:101340001F3F4038403F63140814630304780403CC
:101350006159494D43007F4141410204081020007A
:101360004141417F040201020440404040400003EB
:1013700007080020545478407F28444438384444B7
:101380004428384444287F385454541800087E09AF
:101390000218A4A49C787F0804047800447D4000CF
:1013A0002040403D007F1028440000417F40007CE9
:1013B000047804787C080404783844444438FC18E1
:1013C00024241818242418FC7C08040408485454C5
:1013D000542404043F44243C4040207C1C204020F2
:1013E0001C3C4030403C44281028444C9090907C59
:1013F0004464544C4400083641000000770000006B
:101400004136080002010204023C2623263C1EA1AC
:10141000A161123A4040207A38545455592155550B
:1014200079412154547841215554784020545579BC
:10143000400C1E527212395555555939545454594D
:1014400039555454580000457C410002457D420006
:1014500001457C40F0292429F0F0282528F07C540F
:101460005545002054547C547C0A097F493249492F
:1014700049323248484832324A4848303A4141219C
:101480007A3A42402078009DA0A07D3944444439F6
:101490003D4040403D3C24FF2424487E4943662B88
:1014A0002FFC2F2BFF0929F620C0887E090320542A
:1014B0005479410000447D413048484A3238404028
:1014C000227A007A0A0A727D0D19317D2629292F88
:1014D00028262929292630484D40203808080808A0
:1014E00008080808382F10C8ACBA2F102834FA00A2
:1014F000007B000008142A142222142A14089500E4
:10150000220095AA005500AAAA55AA55AA000000D3
:10151000FF00101010FF00141414FF001010FF0043
:10152000FF1010F010F0141414FC001414F700FF56
:101530000000FF00FF1414F404FC141417101F1013
:10154000101F101F1414141F00101010F0000000C2
:10155000001F101010101F10101010F010000000CD
:10156000FF101010101010101010FF10000000FFDE
:10157000140000FF00FF00001F10170000FC04F41F
:1015800014141710171414F404F40000FF00F714D7
:10159000141414141414F700F7141414171410105E
:1015A0001F101F141414F4141010F010F000001F7A
:1015B000101F0000001F14000000FC140000F010B9
:1015C000F01010FF10FF141414FF141010101F005F
:1015D000000000F010FFFFFFFFFFF0F0F0F0F0FF61
:1015E000FFFF0000000000FFFF0F0F0F0F0F384438
:1015F0004438447C2A2A3E147E02020606027E02F9
:101600007E0263554941633844443C04407E201EB9
:101610002006027E020299A5E7A5991C2A492A1CE8
:101620004C7201724C304A4D4D303048784830BCD5
:10163000625A463D3E494949007E0101017E2A2AFF
:101640002A2A2A44445F444440514A444040444A80
:1016500051400000FF0103E080FF000008086B6BB1
:10166000083612362436060F090F06000018180037
:1016700000001010003040FF0101001F01011E009A
:10168000191D1712003C3C3C3C0000000000060104
:101690001501260137014A015D01720188019F0190
:1016A000B801D201EE010B022A024B026E02930234
:1016B000BA02E40210033F037003A403DC0317041F
:1016C00055049704DD0427057505C80520067D0629
:1016D000E0064907B8072D08A9082D09B9094D0AE0
:1016E000EA0A900B400CFA0CC00D910E6F0F5A10C5
:1016F00053115B1272139A14D41520178018F51920
:10170000801B231DDE1EB420A622B524E426342926
:10171000A72B402E0031EA330037453ABC3D6841E3
:101720004C456B49C84D68524F57805C00621011A0
:101730001213151617181A1C1D1F21232527292CD3
:101740002E3134373A3E4145494E52575C62686EFD
:10175000757B838B939CA5AFB9C4D0DCE9F70B26CE
:1017600011241FBECFEFDAE0DEBFCDBF11E0A0E055
:10177000B1E0EEEEF9E502C005900D92A235B10799
:10178000D9F729E0A2E5B1E001C01D92AE3BB20756
:10179000E1F71BE0C0EBDBE004C02197FE010E94F3
:1017A000092ACF3AD107C9F70E9448260C94F52C94
:1017B0000C94000088E7809389090895089580E0DB
:1017C00090E008958F929F92AF92BF92CF92DF9256
:1017D000EF920F93CF93DF930E949C1E2091890973
:1017E00088E790E0821B910968E270E00E94F52989
:1017F0004B0181E3C82E89E0D82E98E1A92EB12CA7
:10180000C0E0D0E081E090E0C815D90511F080E09B
:1018100090E02091E604289FB001299F700D1124CB
:10182000685F7F4FEE24E39400E328E1A601C50141
:101830000E94E21C219689E1A80EB11C80E9C80E25
:10184000D11CC330D105F1F608E020E241E159E0B6
:101850006EE270E084E490E00E94E21C80E190E09F
:1018600090931F0980931E098AE390E090932109C9
:101870008093200960E079E08AE095E00E941D20D5
:101880008CE190E090931F0980931E09109221092A
:101890001092200962EF78E08AE095E0DF91CF9125
:1018A0000F91EF90DF90CF90BF90AF909F908F906F
:1018B0000C941D202F923F924F925F926F927F92D5
:1018C0008F929F92AF92BF92CF92DF92EF92FF9250
:1018D0000F931F93CF93DF93CDB7DEB766970FB605
:1018E000F894DEBF0FBECDBF8091ED04882309F4CC
:1018F000B0C10E949C1E8091EC04813009F482C02A
:1019000060F0823009F0A3C108E010E083EFE82E18
:101910008AE0F82E9DEFD92E71C1EE24E39400E405
:1019200020E846EB5BE060E070E080E090E00E9441
:10193000E21C6091EA047091EB046115710569F095
:1019400010921F0910921E0910922109109220096D
:1019500080E090E04AE00E94231FE8E2EE2EF12CA6
:1019600000E010E0F2E9CF2EFBE0DF2EB601CE0161
:1019700001960E946A298091E904082E000C990BB7
:101980000817190719F084E490E002C080E490E0A1
:1019900090931F0980931E09F0922109E09220097B
:1019A000BE016F5F7F4F8AE095E00E944120019663
:1019B000C80ED91E0130110569F48091E804811127
:1019C00003C06BE87BE002C06FE87BE08AE095E053
:1019D0000E941D200F5F1F4F26E0E20EF11C043015
:1019E000110521F66091E90436E06302B00111248B
:1019F000685D7F4F01E025E045E088E390E00E94CC
:101A0000811B25C186E190E090931F0980931E09F8
:101A100084E090E090932109809320096CE77BE0BB
:101A20008AE095E00E941D20EEE9F5E090E89E0F27
:101A30008081806181939E13FBCF5EE9252E59E062
:101A4000352E812C912C5401839474E0E72EF12CD7
:101A5000240135013EE0C32ED12C00E010E09401BA
:101A600021503109C801820F931F099719F486E0AC
:101A700090E002C080E090E0A701481B590B509312
:101A80001F0940931E09D0922109C09220096AE7DC
:101A90007BE08AE095E02D8B3E8B0E941D204AE082
:101AA000C301B2010E94231F67E77BE08AE095E053
:101AB0000E941D20F801EE0FFF1FE20DF31D608153
:101AC000718180E090E04AE00E94231F0F5F1F4F6A
:101AD00056E0C50ED11C8FEF481A580A680A780ADA
:101AE0002D893E890530110509F0BCCF9CE3E90E34
:101AF000F11C2AE0220E311C35E0830E911CA11C42
:101B0000B11C4CE7E416F10409F0A2CFEEE9F7E0CE
:101B100090E89E0F8081806181939E13FBCF00E14E
:101B200010E010931F0900931E0980E390E090934A
:101B30002109809320096BE67BE08AE095E00E9412
:101B40001D2060919C0970919D0980E090E04AE021
:101B50000E94231F10931F0900931E0986E390E043
:101B600090932109809320096FE57BE08AE095E05E
:101B70000E941D20609198097091990980919A099D
:101B800090919B0920E13EE040E050E00E94C42992
:101B9000CA01B9014AE00E94231F6091980970911F
:101BA000990980919A0990919B092CE3C22ED12C1E
:101BB000E12CF12CA70196010E94C429CA01B901A8
:101BC000A70196010E94C4299F938F937F936F93DF
:101BD0008BE491E09F938F938E010F5F1F4F1F93B4
:101BE0000F930E94282AB8018AE095E00E944120C4
:101BF0000FB6F894DEBF0FBECDBF29C0B701CE012E
:101C000001960E946A2964E170E0CE0101960E946B
:101C10007129282F3D2D3203C0011124805C9F4F74
:101C200090931F0980931E091093210900932009A6
:101C3000BE016F5F7F4F8AE095E00E9441200196D0
:101C4000E80EF91E0A5F1F4F0E331105B9F6109208
:101C5000ED0466960FB6F894DEBF0FBECDBFDF91E0
:101C6000CF911F910F91FF90EF90DF90CF90BF9099
:101C7000AF909F908F907F906F905F904F903F902C
:101C80002F9008951092E50481E08093E40410926F
:101C9000E0041092E1041092E2041092E30488E759
:101CA00090E09093DF048093DE0480E19EE09093C7
:101CB000DD048093DC041092DB041092DA0460E00F
:101CC00080ED98E00C94281BCF931092EC041092B6
:101CD000E90481E08093ED04C0910905CC2319F05B
:101CE0000E943F2402C00E943224C093E8048091E5
:101CF0009709811103C0CF910C947C25CF91089551
:101D00000F931F93CF938091EC0481116BC080E8F7
:101D10000E945A1B8823A1F08091E904882311F0C6
:101D2000815001C083E08093E9044AE050E060E024
:101D300070E088EB91E00E94681C81E08093ED04E4
:101D400080E10E945A1B8823A9F08091E904833026
:101D500021F08F5F8093E90402C01092E9044AE009
:101D600050E060E070E088EB91E00E94681C81E048
:101D70008093ED048CE00E945A1B882309F488C0EC
:101D80008091E904813099F054F4811126C060916A
:101D9000090582E090E00E948429C1E01FC08230E2
:101DA00091F08330D1F482E08093EC0414C0C091B0
:101DB000E804C82719F00E943F2402C00E94322480
:101DC000C093E80408C081E08093EC040E940326DD
:101DD0001092E70402C00E940326C0E081E08093D5
:101DE000ED0457C0813009F047C080E40E945A1BBF
:101DF000882309F441C0C091E704CA3080F42EE181
:101E0000C29FC001112444E150E060E070E0855BB6
:101E10009D4F0E94681CCF5FC093E7042AC044E135
:101E200050E060E070E08AE292E00E94681C62E0AC
:101E300081EE9AE00E94281B1092E70480E493E070
:101E400090932A098093290908E010E060E070E08F
:101E5000CB010E944C1C01501109C1F781E0809315
:101E600097090E947C251092EB041092EA041092CC
:101E7000EC0481E08093ED048CE00E945A1B8823DF
:101E800039F01092EC040E94032681E08093ED0467
:101E9000C0E00E94FE288C010E948D21012E000CC2
:101EA000220B330B60277127822793276115710559
:101EB0008105910511F00E9461298C2FCF911F910E
:101EC0000F910895CF92DF92EF92FF92809189094E
:101ED00081508093890990E00F9763E070E00E9441
:101EE000F5298EEAC82E83EAD82E8BEBE82E88EBF4
:101EF000F82E04C0F694E794D794C7946A95D2F765
:101F000081E0C822DD24EE24FF248C2D8170809393
:101F1000E6046FEF70E08AE00E94F5206FEF70E05A
:101F20008BE00E94F5208FE7C89EC02C11246FEF34
:101F300070E06C19710989E00E94F52081E09091B0
:101F40008909911180E0FF90EF90DF90CF90089584
:101F50002F923F924F925F926F927F928F929F92B9
:101F6000AF92BF92CF92DF92EF92FF920F931F93A7
:101F7000CF93DF93CDB7DEB762970FB6F894DEBF8D
:101F80000FBECDBF6A3091F4FC01E85EFB4F40818B
:101F900032972081318156E0459F200D311D11245B
:101FA00031832083329711821082FFC020EE260FEA
:101FB000203408F0FAC09A8B898B885E9B4F9987F2
:101FC0008887DC018C91E989FA89E55EFB4F3081D5
:101FD0003A83E989FA89E65EFB4F30813B83E989E0
:101FE000FA89EA5EFB4F4080518049895A894C5EEC
:101FF0005B4F5E834D83DA010D911C910038110512
:102000000CF0A4C0B0E44B1651040CF09FC0282E75
:10201000312C9801E5E08E9F200D311D112437FDF4
:1020200095C09201F6E08F9F200D311D112437FDE0
:102030008DC031E039833A814B81341301C019825C
:1020400054E0659FF0011124E859FF4FC590D590E9
:10205000E590F490813039F0380136E0A82FB0E0F7
:10206000BF87AE8738C036E0832E520196E0992EA6
:10207000C0FC05C03981332349F02A8101C02B817E
:10208000A501B80189899A890E944D24F694E794A4
:10209000D794C7949A944FEFA41AB40A9110E8CF3A
:1020A0008A940F5F1F4F8110E0CF50C0C0FC1CC04E
:1020B000598151111CC0F694E794D794C7948C8130
:1020C00081508C83020D131D8111F0CF3150620CB1
:1020D000731C3323D9F1820156E05C83C301820D66
:1020E000931D9D878C87E2CF9B819F8302C0AA812D
:1020F000AF834301EE85FF85E00FF11FFB87EA8781
:102100004C855D8584169506B4F6580117FF12C0FC
:10211000A12CB12C0FC0A816B906A4F42F81A501DB
:10212000B40189899A89388B0E944D24FFEFAF1A38
:10213000BF0A38898A859B858134910564F380E4E0
:1021400090E0E9CF2FEF821A920ADACFA885B985FD
:102150002C91422F50E0ED81FE8180819181F6E04B
:102160002F9F800D911D1124AD81BE818D939C9375
:10217000E989FA89E75EFB4F20812223B1F06AEFFB
:1021800064039001659F300D112420583F4F28179C
:1021900039075CF4A989BA89ED91FC9111970190F6
:1021A000F081E02D6AE0CD01099581E090E0629632
:1021B0000FB6F894DEBF0FBECDBFDF91CF911F9158
:1021C0000F91FF90EF90DF90CF90BF90AF909F90D6
:1021D0008F907F906F905F904F903F902F900895D9
:1021E000AF92BF92CF92DF92EF920F931F93CF9354
:1021F000DF938091D904882309F4A7C1C091D80442
:10220000CA3240F08091E504813021F48091DE04EF
:1022100080FF9BC10E949C1E8091E404882341F0B2
:1022200080E090E00E946C1B8FE790E00E946C1BA6
:1022300080E490E06C01CC1AD108C8E5D4E0A12C70
:10224000B12CAC14BD0494F44981042E000C550B40
:102250006881062E000C770B21E08AE095E00E9451
:102260004D242FEFA21AB20A2296EBCF8091E504FB
:102270008330E1F480915701882309F45CC02091F8
:10228000560130E02C50310930931F0920931E096C
:10229000869590E08E9690932109809320096BE6B5
:1022A00078E08AE095E00E941D2045C0C8E5AC2E8C
:1022B000C1E0BC2EC3E0D0E014E0C12ED12C18E167
:1022C000D501ED91FC91F7FD2DC0B6E0F595E795B0
:1022D000BA95E1F73497CF01BE010E94F529CB01F1
:1022E000B6010E94F529189FA001199F500D1124D5
:1022F0004059574FD50112962D913C91139737FFB6
:1023000002C0215C3F4FB901A6E075956795AA957B
:10231000E1F764507109EE24E3940CE02CE0CF0166
:102320000E94E21CB6E0AB0EB11CE8E5AE16E4E09C
:10233000BE0631F69FCFC0905601D12CFCE0CF1ADB
:10234000D108C09155018C2F807100E023E048E056
:1023500067E370E0D601A80FB11DCD010E94811B7B
:10236000C695C695B0E3CB9FA00111244551594FA6
:10237000EE24E3940CE028E164E370E0C6010E94DF
:10238000E21CC091E504C11118C08091DE04909157
:10239000DF04C89700E220E44BEE55E060E170E016
:1023A000880F991F0E94E21C03E128E343E455E0F3
:1023B00060E070E084E290E04DC06091DA047091DA
:1023C000DB0440E082E090E00E944C1E8091DC043F
:1023D0009091DD0480312EE092070CF462C060E140
:1023E0007EE00E94F5296C0140E08CE590E00E94BF
:1023F0004C1EEE24E39404E024E04BE355E060E05F
:1024000070E086E690E00E94E21CC6016CE370E09A
:102410000E94F52942E084E790E00E944C1EC13002
:10242000E1F48091DC049091DD049C01255A314057
:10243000243B310598F587709927EE24E39404979F
:102440000CF0E12C0EE02CE743E454E060E170E096
:1024500082E090E00E94E21C21C0C23009F05FC01F
:10246000C091DE04D091DF04CB3CE1E0DE07B4F1A3
:102470006AEC71E06C1B7D0B660F771F645F7F4F0A
:10248000EE24E39400E220E843E452E080E090E0B0
:102490000E94E21C8091540181112BC01092D9043A
:1024A00054C06CE370E00E94F5296C0142E082E6C2
:1024B00090E00E944C1EEE24E39404E028E04BE3FD
:1024C00055E060E070E08CE690E00E94E21CC601FE
:1024D00066E070E00E94F52940E09DCFC53AF1E04A
:1024E000DF0724F0BE0161707727C8CF6CE070E091
:1024F000C7CFCE0168E070E00E94F529049774F61A
:102500008FE190E090931F0980931E098EE290E086
:10251000909321098093200967E372E011C0C330D2
:1025200009F0BCCF81E390E090931F0980931E09CE
:102530008EE290E0909321098093200961E372E09C
:102540008AE095E00E941D20A9CFDF91CF911F91D5
:102550000F91EF90DF90CF90BF90AF9008952F92A2
:102560003F924F925F926F927F928F929F92AF9223
:10257000BF92CF92DF92EF92FF920F931F93CF9370
:10258000DF93CDB7DEB72A970FB6F894DEBF0FBE44
:10259000CDBF9091E504933041F58CE00E945A1B29
:1025A000882341F081E08093E5049EE190935301FC
:1025B0008093D90480E12A960FB6F894DEBF0FBE4F
:1025C000CDBFDF91CF911F910F91FF90EF90DF90E2
:1025D000CF90BF90AF909F908F907F906F905F90C3
:1025E0004F903F902F900C945A1B8091560191115F
:1025F00013C040E450E0481B510921E030E01416BC
:10260000150614F020E030E0952F991F9927991FA7
:10261000291B3109820F1FC09091270995FB442780
:1026200040F950E096FD05C022273327241B350BC7
:1026300004C021E030E0241B350BA901480F511DD7
:10264000CA011816190634F44138510524F080E8FF
:1026500090E001C080E080935601809155012115E2
:10266000310539F08F5F8F702130310519F48061A9
:1026700001C080718093550180915701882321F01A
:102680008150809357010DC080E10E945A1B88231E
:1026900041F088E08093570162E088EE91E00E946B
:1026A000281B6091E4043091D8046090DC047090A1
:1026B000DD042091560140EC4203C00111249A83AD
:1026C000898359E5651652E075061CF487E08A8710
:1026D00002C093E09A8770915201C090DA04D090C2
:1026E000DB04E8E5F1E05CE5A52E51E0B52EADE5B3
:1026F0004A2EA1E05A2EE12C88248A94982CF9873E
:10270000E8878081918197FDF4C002811381D50112
:10271000FC908F0D911DF7FC9A9591838083D201D7
:102720002C91A801420F511D27FD5A9553834283D6
:102730002F5F2C93313100F53C3010F06623E1F02F
:102740008F3F910509F01CF440E051E005C0813055
:102750009F4144F140E05FE1518340835F2DADEF45
:102760005A02C001112497FD03969595879595957A
:102770008795D5018C9316C08F3F910509F03CF4E5
:102780009182808247E450E05383428309C08130C4
:102790009F4154F09182808287E490E0938382830A
:1027A000315002C061E001C060E020803180428190
:1027B0005381161417040CF096C041159FE0590779
:1027C0000CF491C001151F4008F08DC089819A81D9
:1027D000820D931D8C011D5F0130164008F083C0EF
:1027E00097FDCF9616E0959587951A95E1F7D50157
:1027F000BC91BE8327FD2F5F259521952F8329E569
:10280000621622E072062CF40897B3E0EB2EF12C4E
:1028100004C00497A2E0EA2EF12C00E010E04E8103
:10282000042E000C550B5C834B835E81AA855A0FE6
:102830005D83BE81BA1BBE8340E05FE0A885B98599
:1028400013965C934E9312974B815C81480F591FEE
:1028500057FF03C04E81480F04C04D81480FA88523
:10286000B98514964C93AC0197FF04C044275527B3
:10287000481B590BBF814B0F29E5621622E07206F7
:1028800014F0485201C04C52A885B98515964C9356
:102890000F5F1F4F08960E151F05F9F00115110562
:1028A00059F237FDC9CF472F50E04F5F5F4F4F7749
:1028B0005527742F26E0249FD001259FB00D1124A9
:1028C000A85ABE4F4D915C91119757FFECCFB98735
:1028D000A8872D923C923F5FAFCFBFEFCB1ADB0AA8
:1028E000EE24E39406C0413851411CF0918280826D
:1028F0003150369646E0A40EB11C56E0450E511CF0
:1029000084E0E835F80709F0FACE7093520130936D
:10291000D8046093E404D092DB04C092DA04EE2081
:1029200091F08091DC049091DD04893592401CF097
:1029300080EA95E002C080E897E04FE050E060E078
:1029400070E00E94681C2091D80480E490E0821B13
:102950009109181619067CF08091DE049091DF042D
:1029600001979093DF048093DE042091E5042223F5
:1029700009F458C074C068E5262E64E0362E09E5D7
:1029800014E072E0C72ED12CE12CF12CE0E88E2E61
:10299000912CA12CB12C0E945C29F1014080042CC7
:1029A000000C55086608770823E030E040E050E06E
:1029B0000E949229DC01CB010197A109B109480EBF
:1029C000591E6A1E7B1ED1014C920E945C29F8019F
:1029D0004080042C000C550866087708A701960172
:1029E0000E949229DC01CB01840D951DA61DB71D07
:1029F000F8018083803454F00E945C29A501940181
:102A00000E949229D1016C93F8011082F2E02F0EFE
:102A1000311C0E5F1F4F28ED221624E0320609F00C
:102A2000BACF9ACF8C339105A9F480E090E19093CE
:102A300059018093580180E098E090935B01809366
:102A40005A0110925C0180EC80935D0181E08093DB
:102A5000D8045AC0892B09F057C081E036C1213013
:102A600009F047C08091DC049091DD041816190626
:102A70002CF401979093DD048093DC048091E004B2
:102A80009091E104A091E204B091E3040196A11DAC
:102A9000B11D8093E0049093E104A093E204B0930D
:102AA000E3042091D80421111AC022E02093E50408
:102AB0002091DA043091DB043093EB042093EA0494
:102AC000E2EBF9E05AE0A52EB12CA50141505109E5
:102AD000729162916217730708F4ECC02DC0809167
:102AE0005301811111C08CE00E945A1B8111ECC06E
:102AF0000BC0223049F480915301811105C08CE054
:102B00000E945A1B8111E4C08091530118161CF4D5
:102B100081508093530181E08093D9048091E50432
:102B2000823041F481E02091DE043091DF04232BD8
:102B300009F4D4C080E0D2C0EAE0AE16B10439F0A6
:102B4000F501EE0FFF1FE256F64F318320832091EF
:102B50009C0930919D092F5F3F4F30939D09209331
:102B60009C09409198095091990960919A09709136
:102B70009B09840F951FA61FB71F809398099093F8
:102B80009909A0939A09B0939B0980919709813084
:102B900061F480E493E090932A09809329096FE41B
:102BA00072E48EE493E00E944C1CC5018E559E4F4A
:102BB000880F991F90932A09809329098C01045446
:102BC00013407501C12CD12C8AE0E816F10481F084
:102BD000F601E00FF11FE256F64F808191810E94CD
:102BE0003D1C4FEFE41AF40A52E0C50ED11CECCFA5
:102BF00080919C0990919D090E943D1C60919809CB
:102C00007091990980919A0990919B090E944C1C9E
:102C1000EEE9F9E04BEE58E420E030E0619171918B
:102C2000D9011396A69FC001A79F900DB69F900D46
:102C30001124480F591F2F5F3F4F2A30310571F77C
:102C4000C0909809D0909909E0909A09F0909B095A
:102C50008EE08C9D90018D9D300D112460919C091A
:102C600070919D09EDE0E69FC001E79F900D112452
:102C7000820F931F6FE06E9D90016F9D300D1124A8
:102C8000820F931F840F951F0E943D1C82E080934A
:102C9000970981E0A11080E08093540180EE91E0DB
:102CA0009093DF048093DE0461E08AEF91E00E945C
:102CB000281B2ACF4930510529F0738362834115BF
:102CC000510549F05A0101CF83E08093E5041CCF00
:102CD0000E94420E19CFA12CB12C32CF2A960FB6EA
:102CE000F894DEBF0FBECDBFDF91CF911F910F9142
:102CF000FF90EF90DF90CF90BF90AF909F908F901C
:102D00007F906F905F904F903F902F9008958F929B
:102D10009F92AF92BF92CF92DF92EF92FF920F936A
:102D20001F93CF93DF93E8E5F1E08FEF9FEF91835F
:102D30008083369624E0E835F207C9F71092D8046C
:102D400010925201C0E0D0E080E8882E912CA12C96
:102D5000B12C90E4C92ED12CE12CF12C0E945C29DD
:102D60008E01085A1B4FA50194010E949229F80177
:102D700060830E945C29A70196010E949229F801B4
:102D800061832296C038D10549F780EA80935601C5
:102D90001092550110925701DF91CF911F910F9121
:102DA000FF90EF90DF90CF90BF90AF909F908F906B
:102DB0000C94420ECF93DF931F92CDB7DEB7698399
:102DC000DC01ED91FC910280F381E02D41E050E0C7
:102DD000BE016F5F7F4F09950F90DF91CF910895EE
:102DE00083E08093E9008091F200882319F08AE360
:102DF0008093E8000895FC018485958597FD0BC0BC
:102E00009FB7F89482E08093E9008091F2009FBF21
:102E100090E0019608959FB7F89482E08093E900CE
:102E20008091F2009FBF90E008958F929F92AF92A1
:102E3000BF92CF92DF92EF92FF920F931F93CF93A7
:102E4000DF935C016B017A0180910B01882309F407
:102E50005BC08091F704882309F456C08091F40484
:102E600080FF05C08091E00082608093E000E70170
:102E700010E00AEF83E0882E9AE3992E2097D9F18B
:102E80000E94901F81110AC0015009F43DC061E009
:102E900070E080E090E00E94B221F0CF282F30E077
:102EA000C217D3070CF48C2F4FB7F8948092E90027
:102EB0009091E80095FF1DC0282F30E0C21BD30B76
:102EC000F601982F915020F081918093F100FACF74
:102ED000C20ED31E112319F09092E80009C0809110
:102EE000E80085FD06C09092E80011E0209709F007
:102EF00010E04FBFC3CF1111C3CF5D9884E680931C
:102F0000F5041E141F0444F081E090E0F501938362
:102F1000828380E090E001C0C701DF91CF911F91D3
:102F20000F91FF90EF90DF90CF90BF90AF909F9068
:102F30008F9008950E94901F90E008950F931F9323
:102F4000CF93DF931F92CDB7DEB78C01FC01848550
:102F5000958597FF0EC0CE0101960E94661F0197CE
:102F600019F4298130E002C02FEF3FEFF8013587D7
:102F70002487F801848595850F90DF91CF911F916B
:102F80000F910895CF93DF931F92CDB7DEB7FC0169
:102F90008485958597FD05C02FEF3FEF3587248702
:102FA0000BC0CE0101960E94661F019719F489811A
:102FB00090E002C08FEF9FEF0F90DF91CF910895C7
:102FC000CF92DF92EF92FF920F931F93CF93DF93F5
:102FD0001F92CDB7DEB7182F062FE42E862F880F4D
:102FE0008E5F99830E94E21F83E00E94E21FF12E10
:102FF000C12E9981D92E8C2D8F19801798F4F60146
:10300000E7FE02C0849101C080810E94E21F182F58
:1030100080E00E94E21F8123FFEFCF1ADF0A8111B7
:10302000EACF01C081E00F90DF91CF911F910F9106
:10303000FF90EF90DF90CF900895DF92EF92FF9294
:103040000F931F93CF93DF93D82E8A017B01E40E59
:10305000F51EEB01CE15DF0571F0D7FE03C0FE01B2
:10306000849101C088810E94E21F21968111F2CFD4
:103070008FEF9FEF01C0C801DF91CF911F910F919A
:10308000FF90EF90DF9008950F931F93CF93DF93FE
:103090001F92CDB7DEB782E0898342E450E066EB51
:1030A0007FE080E80E941D180E94A11FDC0112969B
:1030B0000D911C9113970115110569F0D801ED913F
:1030C000FC910280F381E02DBE016F5F7F4FC8014C
:1030D000099597FF07C089810F90DF91CF911F91CC
:1030E0000F910895F80100851185E5CF1F920F9289
:1030F0000FB60F9211248F939F938091E1009091CE
:10310000E100937F9093E10083FF0FC01092E900EC
:1031100091E09093EB001092EC0092E39093ED001D
:103120001092F70498E09093F00082FF20C093E0A3
:103130009093E9009091F200992319F09AE390930B
:10314000E8009091F504992339F09091F50491509D
:103150009093F504992389F19091F604992339F01D
:103160009091F60491509093F604992341F184FFD5
:1031700010C08091E2008E7E81608093E200809199
:10318000E1008F7E8093E1008091F4048E7E806167
:1031900011C080FF16C08091E2008E7E8061809316
:1031A000E2008091E1008E7E8093E1008091F40442
:1031B0008E7E81608093F40404C05D9ACDCF289AFE
:1031C000D6CF9F918F910F900FBE0F901F901895A3
:1031D0001F920F920FB60F921124CF92DF92EF92AF
:1031E000FF920F931F932F933F934F935F936F9390
:1031F0007F938F939F93AF93BF93EF93FF93CF935F
:10320000DF93CDB7DEB76C97DEBFCDBF1092E9007C
:103210008091E80083FFEDC168E0CE0145960E94F1
:10322000102082EF8093E8008D8987FF05C0909180
:10323000E80090FFFCCF03C09EEF9093E800982F2A
:10324000907609F0C6C09E892F89188D91110CC007
:10325000803829F48091F3048093F10002C0109229
:10326000F1001092F10048C1422F50E0512B9130F3
:1032700051F4811141C14130510509F03DC18091A6
:10328000F3048D7F0BC0933061F4811135C141305F
:10329000510509F031C18091F30482608093F304F9
:1032A0002BC1953041F48091E80080FFFCCF20686D
:1032B0002093E30021C1963009F05FC0EB8CFC8CB9
:1032C0001092E9001092F1041092F004123091F57E
:1032D0001092EF041092EE040E94441899E0BE018F
:1032E0006F5F7F4FDB01E92F1D92EA95E9F7998324
:1032F0001A8391E09E8390EA98879AEF99872091AC
:10330000F0043091F104275F3F4F3C832B838D8382
:103310001092E9001092F1041092F004F092EF0480
:10332000E092EE0449E050E080E00E941D180E9407
:103330004418E2C0F092EF04E092EE040E94A11F54
:10334000DC011296ED90FC901397E114F10409F45E
:10335000C0C0D701ED91FC910480F581E02DBE0144
:103360006B5E7F4FC7010995009719F00CF0C4C040
:10337000C7C0F701E084F184E8CF973009F4C0C0FA
:10338000983021F481E08093F100B6C0993009F0C3
:10339000B3C0837009F0B4C0E5E1F1E081E021E061
:1033A00036E39081992361F08093E9002093EB004C
:1033B00091919093EC003093ED008F5F873089F707
:1033C0008EE78093EA001092EA008F898093F704D9
:1033D00093C08B8D9C8D1092E9001092F104109295
:1033E000F0049093EF048093EE04898D811156C010
:1033F0008E899D89913A59F4813209F081C047E064
:1034000050E064E071E080E00E941D1875C09132C8
:1034100009F076C0833289F4888D90E0982F882750
:103420002F89822BA0E0B0E08093000190930101EE
:10343000A0930201B09303015FC0803269F48091D0
:10344000E80082FFFCCF67E084E091E00E9410205A
:103450008BEF8093E80006C0823209F04DC08F895F
:1034600080930B018091F204882319F0EEEFFAE0CB
:1034700002C0E0E0F8E08091040190910501A09184
:103480000601B0910701803B9440A105B10509F008
:103490007BC080910B0180FF93C076C00E94A11F6A
:1034A000DC0112960D911C9113970115110541F144
:1034B000D801ED91FC910190F081E02DBE016B5E91
:1034C0007F4FC8010995811117C0F801008511854A
:1034D000ECCF113009F44EC0133091F48F8988235A
:1034E00009F445C0823081F440E860E18AE190E16E
:1034F0000E94E017882321F08EEF8093E80079C0C6
:1035000081E28093EB0075C0813029F440E86BE0E4
:103510008EE090E1EDCF833099F70E94A11FDC018E
:103520001296ED90FC9013978E010F5F1F4F68016C
:10353000E114F10479F0D701ED91FC910680F78157
:10354000E02DB801C7010995080F111DF701E084AE
:10355000F184EECFD8011C92F60101900020E9F72A
:103560003197BF016C197D0940E0C601C1CF68EFFA
:103570007FE002C06CEF7FE06115710509F2FB018D
:10358000449150E080E840CF0FB6F894A895809120
:103590006000886180936000109260000FBEA89563
:1035A000EE3F2AE0F20739F08091FE0A9091FF0A7F
:1035B00091838083A1CF1092FF0A1092FE0A9CCFC4
:1035C000EE3F8AE0F80731F0808191819093FF0A05
:1035D0008093FE0A87E797E7918380839BE088E1E9
:1035E0000FB6F894A895809360000FBE909360008A
:1035F00083CF6C960FB6F894DEBF0FBECDBFDF91C0
:10360000CF91FF91EF91BF91AF919F918F917F915A
:103610006F915F914F913F912F911F910F91FF906B
:10362000EF90DF90CF900F900FBE0F901F901895E6
:10363000682FF999FECF8091290990912A099C0160
:103640002F5F3F4F30932A09209329090C94842936
:103650000F931F93CF93DF9320910905222329F124
:10366000162FEC0180910405882381F080912809B0
:103670008617D8F000E080910305081728F4802F02
:103680000E943E230F5FF7CF109204051093280984
:10369000D0930805C0930705D0930605C093050590
:1036A0000E94672381E080930405DF91CF911F91F1
:1036B0000F9108952091260930E020953095409192
:1036C000270950E02423352390E02823392381E083
:1036D000232B09F480E008958038910588F4FC01DB
:1036E000E25EFA4F90E48FEF2081822B8083985026
:1036F000E058FF4F992321F09830ACF78FE7F4CFD3
:1037000008950F93CF93DF9397FF0DC0E42FF0E060
:10371000AA27BB27A81BB90BAE17BF070CF07CC0AC
:10372000480F80E090E077FF0FC0AA27BB27A61BB9
:10373000B70BE22F022E000CFF0BAE17BF070CF0E9
:103740006BC0260F60E070E0442309F465C0803848
:1037500091050CF061C012160CF05EC0603471056A
:103760000CF05AC0FC01E40FF11DE138F10514F032
:1037700040E8481BFB01E20FF11D27FDFA95E134FB
:10378000F10514F020E4261B562F57703FEF052E4D
:1037900001C0330F0A94EAF7250F651B710977FF03
:1037A00002C0695F7F4F53E0759567955A95E1F7C1
:1037B0007695762F662777956795680F791F625EF5
:1037C0007A4FA8E0B0E0CFEFD0E012162CF5283009
:1037D00064F4CD01821B910927FD9395FE0102C07F
:1037E000F595E7958A95E2F73E23942F960F011100
:1037F00008C03095FB018081832381939E13FBCF0A
:1038000006C0FB018081832B81939E13FBCF285040
:1038100060587F4F3FEFD9CFDF91CF910F9108953F
:10382000EF92FF920F931F93CF93DF93F999FECFFF
:10383000C0912909D0912A097E012FEFE21AF20ADC
:10384000F0922A09E0922909CE010E947C29082FD2
:1038500010E0F999FECF2296D0932A09C093290946
:10386000C7010E947C299801382BC901DF91CF91B3
:103870001F910F91FF90EF900895CF93DF931F92C8
:10388000CDB7DEB799830E94181B9981892F0F90BD
:10389000DF91CF910C94181B1F93CF93DF9300D02F
:1038A000CDB7DEB7182F862F79839A830E94181B15
:1038B0007981872F0E94181B812F0E94181B9A81E3
:1038C000892F0F900F90DF91CF911F910C94181BAF
:1038D0004F925F926F927F928F929F92AF92BF9220
:1038E000CF92DF92EF92FF92CF93DF93EC014A01E8
:1038F0005B0181E0809302052E01612C712C60E058
:1039000072E18AE790E0A30192010E949229690185
:103910007A0181E0C81AD108E108F108C114D10484
:1039200081E0E806F10488F068E478EE81E090E058
:10393000A30192010E94922969017A0181E0C81ACB
:10394000D108E108F10883E001C081E09091810095
:10395000987F982B9093810081149104A104B10465
:1039600071F0DE01AA0FBB1FA50194010E94B129CD
:1039700028EE33E040E050E00E94C42903C02FEF5E
:103980003FEFA901D0928900C09288002093FE04E5
:103990003093FF04409300055093010580916F0020
:1039A000826080936F00DF91CF91FF90EF90DF9066
:1039B000CF90BF90AF909F908F907F906F905F90CF
:1039C0004F9008952F923F924F925F926F927F9205
:1039D0008F929F92AF92BF92CF92DF92EF92FF921F
:1039E0000F931F93CF93DF93CDB7DEB728970FB612
:1039F000F894DEBF0FBECDBF222E312C9C01220DCC
:103A0000331D37FD30C1803891050CF02CC19B016E
:103A1000200F311D37FD27C1603471050CF023C123
:103A2000DB0177FF04C0AA27BB27A61BB70BA77033
:103A3000BB279B0177FF02C0295F3F4F13E03595FD
:103A400027951A95E1F777FF08C02150310968E002
:103A500070E05B01AA1ABB0AD501E02FE695E69556
:103A6000E695CE2ED12C077019F00FEFC01AD00AB0
:103A7000B9017695762F662777956795680F791F38
:103A80005601A20EB31EBC82AB82412C512CF8E031
:103A9000CF2ED12C86010A1B1B0B1A830983AB8006
:103AA000BC802A153B0509F4DEC02830310509F435
:103AB000DAC02F3F1FEF31070CF4CAC03B01E0E82A
:103AC0006E0E711C8B0102561A4F1E830D834C0122
:103AD00000E010E0021513050CF0BAC0E0E88E1605
:103AE000910409F4B5C097FCA8C02F3FFFEF3F0732
:103AF00009F4B5C0F801E40DF51DCD80DE80C618CF
:103B0000D708AA24A394E40FF51FEA1013C0E49188
:103B1000C60ED71EF0E05F010A2E02C0AA0CBB1C25
:103B20000A94E2F7B886AF82F601B080EF81F8859B
:103B3000EB292BC0E11017C0E491C60ED71EF0E0B0
:103B40000A2E02C0EE0FFF1F0A94E2F75F01A09455
:103B5000B094B886AF82F601A080B12CEF81F885D1
:103B6000AE22BF2213C0E491C60ED71EF0E05F0163
:103B70000A2E02C0AA0CBB1C0A94E2F7B886AF82D8
:103B8000F601B080EF81F885EB255F01F601A08298
:103B9000109709F452C02730310509F44EC0F801DE
:103BA000E40DF51DAA24A394EA1011C0E40FF51F3B
:103BB000E491CE2ED12C5601098002C0B594A79471
:103BC0000A94E2F7ED81FE81D080AD2835C0CD802A
:103BD000DE80C618D708E40FF51FE11018C0E49185
:103BE000C60CD71CAE2EB12C098002C0B594A79488
:103BF0000A94E2F7F501E095F095F887EF83F60176
:103C0000A080B12CEF81F885AE22BF2214C0E491D0
:103C1000C60CD71CAE2EB12CF501098002C0F5955B
:103C2000E7950A94E2F7F887EF83F601B080EF8119
:103C3000F885EB255F01F601A0820F5F1F4FED8134
:103C4000FE813196FE83ED83FFEF8F1A9F0A42CFEC
:103C50002F5F3F4F420C531C60587F4F20CF10976F
:103C600009F09DCFEACF28960FB6F894DEBF0FBEBD
:103C7000CDBFDF91CF911F910F91FF90EF90DF901B
:103C8000CF90BF90AF909F908F907F906F905F90FC
:103C90004F903F902F900895AF92BF92CF92DF92B6
:103CA000EF920F931F93CF93DF935C018B01C42E90
:103CB000D12C6A30710594F0CB016AE070E00E946B
:103CC000F5295BEF96015203C001539F900D11241B
:103CD0008A0D9B1D0E944C1EEC0102C0C0E0D0E08A
:103CE000C8016AE070E00E94F52924E1289FA00144
:103CF000299F500D112447585F4EEE24E3940EE0A7
:103D00002AE060E070E0C5018C0F9D1F0E94E21C5C
:103D10002A962BEFA6012403C001259F900D1124A4
:103D20008C0F9D1FDF91CF911F910F91EF90DF902E
:103D3000CF90BF90AF90089520E08EE195E0B22F34
:103D4000B111BFEFFC010024B193B193B193B193D2
:103D50000394D1F70895CF93DF93909103059230A8
:103D600009F46EC0C82F292F30E0F901E958FF4E41
:103D7000D491F901E95CF64F80839F5F909303052E
:103D800061E00E94B920D13019F0D33039F158C028
:103D90001092800010928100809181008860809351
:103DA0008100809181008160809381008C2F90E060
:103DB000FC01E85AFF4EE491F0E0EE0FFF1FE65BD6
:103DC000FF4E259134913093FD042093FC04FC01B7
:103DD000E55DFF4E84918093FB0432C01092900009
:103DE0001092910080919100886080939100809161
:103DF00091008160809391008C2F90E0FC01E85A43
:103E0000FF4EE491F0E0EE0FFF1FE65BFF4E2591C1
:103E100034913093FA042093F904FC01E55DFF4EE0
:103E200084918093F80480910305882321F06CE34A
:103E300080E00E94532280E0DF91CF910C943E23DA
:103E4000DF91CF9108958F929F92AF92BF920F937F
:103E50001F93CF93DF93CDB7DEB7A1970FB6F8943A
:103E6000DEBF0FBECDBF19A2423008F44AE08E017A
:103E70000F5D1F4F842E912CA12CB12CA501940114
:103E80000E94C429E62FB901CA0101501109EA3084
:103E900014F4E05D01C0E95CD801EC93232B242BE2
:103EA000252B61F7B8018AE095E00E944120A19698
:103EB0000FB6F894DEBF0FBECDBFDF91CF911F913B
:103EC0000F91BF90AF909F908F900895FC018091CB
:103ED000F704811103C08FEF9FEF08959FB7F89407
:103EE00082E08093E9002091F20030E01216130680
:103EF00014F421E030E02115310559F0289884E6CA
:103F00008093F6048091F10080838091F2008823F1
:103F100019F09FBFC90108958BE68093E800F9CF9F
:103F20002FB7F89483E08093E9009091E800892FFF
:103F3000807295FF04C09091F20080E4891B2FBF2E
:103F4000089580912F0981110DC082E080932B0983
:103F500084E080932C0910922E0910922D0981E0A3
:103F600080932F098BE299E00895CF92DF92EF9230
:103F7000FF920F931F93CF93DF936C017A018B0114
:103F8000C0E0D0E0CE15DF0589F0D8016D918D013C
:103F9000D601ED91FC910190F081E02DC6010995CB
:103FA000892B11F47E0102C02196ECCFC701DF916D
:103FB000CF911F910F91FF90EF90DF90CF900895D8
:103FC0000E94232A4091F0045091F1042091EE04C4
:103FD0003091EF0442175307B4F49091E8009570C4
:103FE000E1F39091E80092FD19C08093F100809177
:103FF000F0049091F10401968F739927892B19F49D
:104000008EEF8093E8008091F0049091F104019686
:104010009093F1048093F00481E0089580E0089586
:10402000615030F02091F100FC0120830196F8CF1F
:10403000289884E68093F6040895EF92FF920F93F8
:104040001F93CF93DF938C017B01C0E0D0E0F70199
:10405000EC0FFD1F6491662361F0D801ED91FC9196
:104060000190F081E02DC8010995892B11F021966E
:10407000EECFCE01DF91CF911F910F91FF90EF9086
:1040800008956115710579F0FB0101900020E9F7B1
:104090003197AF01461B570BDC01ED91FC9102807B
:1040A000F381E02D099480E090E00895362F90E0B0
:1040B000FC01EF5BFE4E4491FC01E55DFF4E249157
:1040C000FC01E85AFF4E8491882309F451C044232F
:1040D000E1F150E0FA013197EF30F105B0F5EA5A1D
:1040E000FF4F0C94092A909180009F7707C0909110
:1040F00080009F7D03C090918000977F9093800007
:1041000024C094B59F7702C094B59F7D94BD1DC017
:10411000909190009F7707C0909190009F7D03C081
:1041200090919000977F909390000FC09091C00065
:104130009F7703C09091C0009F7D9093C00005C001
:104140009091C200977F9093C200E82FF0E0EE0FAD
:10415000FF1FE65BFF4EA591B4918FB7F894EC91E9
:10416000311103C020952E2301C02E2B2C938FBF1D
:104170000895CF93DF9390E0FC01E55DFF4E24911D
:10418000FC01E85AFF4E8491882361F190E0880F8A
:10419000991FFC01E05AFE4EC591D491FC01E65BEB
:1041A000FF4EA591B491611109C09FB7F894888121
:1041B000209582238883EC912E230BC0623061F41A
:1041C0009FB7F8943881822F809583238883EC9160
:1041D0002E2B2C939FBF06C08FB7F894E8812E2B0F
:1041E00028838FBFDF91CF9108951F93CF93DF93E3
:1041F000182FEB0161E00E94B920209711F460E0D4
:1042000004C0CF3FD10539F461E0812FDF91CF9118
:104210001F910C945620E12FF0E0EF5BFE4EE491ED
:104220004E2F50E0FA013197EF30F10508F06CC0E5
:10423000EB59FF4F0C94092A84B5806884BDC7BD33
:1042400068C084B5806284BDC8BD63C080918000B1
:10425000806880938000D0938900C093880059C003
:1042600080918000806280938000D0938B00C09307
:104270008A004FC080918000886080938000D09336
:104280008D00C0938C0045C0809190008068809321
:104290009000D0939900C09398003BC0809190000B
:1042A000806280939000D0939B00C0939A0031C0AD
:1042B00080919000886080939000D0939D00C0937F
:1042C0009C0027C08091C00080688093C0008091CE
:1042D000C0008F7B8093C000C093CF001AC0809134
:1042E000C00080628093C000C093D00012C0809153
:1042F000C20088608093C2008091C2008B7F80934F
:10430000C200C093D20005C0C038D1050CF07CCFEC
:1043100076CFDF91CF911F9108953FB7F8948091A8
:10432000BA099091BB09A091BC09B091BD0926B50D
:10433000A89B05C02F3F19F00196A11DB11D3FBFDD
:10434000BA2FA92F982F8827820F911DA11DB11D6B
:10435000BC01CD0142E0660F771F881F991F4A9567
:10436000D1F708958F929F92AF92BF92CF92DF9232
:10437000EF92FF926B017C010E948D214B015C0149
:10438000C114D104E104F104F1F00E948D21DC019B
:10439000CB0188199909AA09BB09883E9340A10558
:1043A000B10570F321E0C21AD108E108F10888EEE6
:1043B000880E83E0981EA11CB11CC114D104E10435
:1043C000F10419F7DDCFFF90EF90DF90CF90BF9011
:1043D000AF909F908F9008951F920F920FB60F92FB
:1043E00011242F933F938F939F93AF93BF9380910B
:1043F0008A0990918B09A0918C09B0918D09309117
:10440000B90923E0230F2D3720F40196A11DB11D1A
:1044100005C026E8230F0296A11DB11D2093B909FE
:1044200080938A0990938B09A0938C09B0938D098E
:104430008091BA099091BB09A091BC09B091BD09C6
:104440000196A11DB11D8093BA099093BB09A09359
:10445000BC09B093BD09BF91AF919F918F913F91DE
:104460002F910F900FBE0F901F9018958FB12CB108
:1044700093B130E02095309520743327A90123E0D3
:10448000559547952A95E1F7292F30E020953095ED
:10449000207133273595279535952795242B8095C1
:1044A000807F822B0895CF92DF92EF92FF920F933D
:1044B0001F93CF93E82FF0E0E958FF4EC491E62F09
:1044C000F0E0603330F4E25DF84EE4910E2F10E03E
:1044D00006C0EE0FFF1FE25DF94E059114916801D1
:1044E000E12CF12C60E074E284EF90E0A7019601EA
:1044F0000E949229BA01A90141505109610971092B
:104500004115510581E06807710580F060E970EDA3
:1045100083E090E0A70196010E949229BA01A901C7
:10452000415051096109710983E001C081E0C13046
:10453000C9F0C33031F590919100987F892B809319
:10454000910050939900409398001093B8090093FC
:10455000B70981E08093B6098091710082608093F1
:1045600071000FC090918100987F892B809381000A
:10457000509389004093880080916F0082608093FF
:104580006F00CF911F910F91FF90EF90DF90CF9030
:1045900008951F920F920FB60F9211242F933F93FD
:1045A0008F939F93AF93BF93EF93FF9380910205F7
:1045B000882309F44DC08091FE049091FF04A091DE
:1045C0000005B0910105892B8A2B8B2B51F180912D
:1045D000FB04E091FC04F091FD0490818927808325
:1045E0008091FE049091FF04A0910005B091010517
:1045F000181619061A061B06A4F58091FE04909160
:10460000FF04A0910005B09101050197A109B1092E
:104610008093FE049093FF04A0930005B0930105DE
:1046200020C01092020580916F008D7F80936F00F3
:104630009091FB04E091FC04F091FD048081282F0F
:1046400030E0892F90E0809590958223932308C0D5
:104650008091FB04E091FC04F091FD049081892796
:104660008083FF91EF91BF91AF919F918F913F9187
:104670002F910F900FBE0F901F901895E82FF0E02C
:10468000E958FF4EE491E13019F0E33069F0089504
:1046900080916F008D7F80936F009091FB04E0917B
:1046A000FC04F091FD0408C01092B6099091F80442
:1046B000E091F904F091FA048081282F30E0892FED
:1046C00090E0809590958223932380830895E091D4
:1046D0000505F0910605BF016F5F7F4F70930605DA
:1046E000609305054491942F907F842F8F709038AC
:1046F00019F40E943E23EBCF903981F43296F09367
:104700000605E0930505FB01649190910305891767
:10471000F0F667FDDCCF0E945322D9CF903E49F4DA
:1047200080910705909108059093060580930505F3
:10473000CECF903F19F410920405089597FDC7CF8E
:104740003296F0930605E0930505FB01249130E0D5
:10475000342BA091B709B091B8090E94E6296C509A
:104760007E4F8F4F9F4F28EE33E040E050E00E9495
:10477000C4292093B2093093B3094093B4095093EC
:10478000B5098091B2099091B309A091B409B09193
:10479000B509892B8A2B8B2B61F481E090E0A0E096
:1047A000B0E08093B2099093B309A093B409B09399
:1047B000B50908951F920F920FB60F9211242F93EF
:1047C0003F934F935F936F937F938F939F93AF9399
:1047D000BF93EF93FF938091B609882349F08091AE
:1047E000F804E091F904F091FA049081892780831C
:1047F00080910405882329F18091B2099091B30931
:10480000A091B409B091B509892B8A2B8B2BC9F0E3
:104810008091B2099091B309A091B409B091B50902
:104820000197A109B1098093B2099093B309A093AC
:10483000B409B093B509892B8A2B8B2B11F40E94F4
:104840006723FF91EF91BF91AF919F918F917F91DE
:104850006F915F914F913F912F910F900FBE0F90ED
:104860001F90189510920905E4E6F0E080818860B9
:104870008083E5E6F0E08081886080830895E4E647
:10488000F0E08081877F8083E5E6F0E08081877FAC
:10489000808381E08093090508956038710518F5DB
:1048A0004034510500F5A42FA695A695A695B0E035
:1048B00047705527B695BA2FAA27B795A7956A0FBF
:1048C0007B1FFC01E60FF71F81E090E001C0880F1D
:1048D0004A95EAF7222319F09489892B03C0809521
:1048E00094898923848B08952F923F924F925F92EF
:1048F0006F927F928F929F92AF92BF92CF92DF92F0
:10490000EF92FF920F931F93CF93DF93CDB7DEB754
:104910002A970FB6F894DEBF0FBECDBF6A3091F470
:10492000FC01E85EFB4F408132972081318158E0E5
:10493000459F200D311D1124318320833297118230
:104940001082C1C06D3009F4BEC09A878987885E25
:104950009B4F9C838B83DC012C90E985FA85EA5E72
:10496000FB4F60807180E985FA85EC5EFB4FFA832E
:10497000E9830081118100381105D4F0AB81BC813D
:104980002C91422F50E0E981FA8180819181F6E0FB
:104990002F9F800D911D1124A981BA818D939C9325
:1049A000E985FA85E75EFB4F208121115EC08BC04F
:1049B000B0E46B16710414F7C801E5E02E9E800D7B
:1049C000911D112418161906CCF6422C512CC30146
:1049D000F8E02F9E800D911D11241816190674F60B
:1049E00055E0659F900111243F832E83E12CF12C2B
:1049F00085E0E816F10441F0EE81FF81EE0DFF1D28
:104A0000E257FE4E349001C0312C630138E0932D03
:104A100091709D834801882D801B8215B0F456014A
:104A20008A2D8C19821568F42D81A501B401898520
:104A30009A8538870E944D24AFEFAA1ABA0A3885A2
:104A4000EFCFBFEF8B1A9B0AE6CF36943150C40CE0
:104A5000D51C3111DCCFEFEFEE1AFE0A040D151D47
:104A6000F6E0EF16F10421F689CF6AEF64039001B6
:104A7000659F300D112420583F4F281739071CF52A
:104A8000A985BA85ED91FC9111970190F081E02DF7
:104A90006AE0CD012A960FB6F894DEBF0FBECDBFF7
:104AA000DF91CF911F910F91FF90EF90DF90CF900A
:104AB000BF90AF909F908F907F906F905F904F903E
:104AC0003F902F9009942A960FB6F894DEBF0FBE40
:104AD000CDBFDF91CF911F910F91FF90EF90DF90AD
:104AE000CF90BF90AF909F908F907F906F905F908E
:104AF0004F903F902F9008950F931F93CF93DF9384
:104B000080E493E090932A09809329090E94101C65
:104B1000EC010E94101CA0E0B0E0DC01992788277E
:104B2000AE0160E070E0842B952BA62BB72B8F3461
:104B30009244AE44B34019F0EEE9F9E04AC0C3E054
:104B4000D0E00BEE18E40E94101C9C01C29FC00133
:104B5000C39F900DD29F900D1124080F191F21960D
:104B6000C031D10581F70E94101C8017910721F7F1
:104B700084E493E090932A0980932909CEE9D9E04F
:104B80000E94101C8993999339E0C23BD307C1F767
:104B90000E94101C90939D0980939C090E94101CF8
:104BA000EC010E94101CA0E0B0E0DC0199278827EE
:104BB000AE0160E070E0842B952BA62BB72B809381
:104BC000980990939909A0939A09B0939B0982E060
:104BD00013C01192119289E0E23BF807D1F71092CD
:104BE0009D0910929C0910929809109299091092AF
:104BF0009A0910929B0981E080939709DF91CF91E8
:104C00001F910F91089544E150E060E070E08BE463
:104C100092E00C94681CE9E3F9E01382128288EEBA
:104C200093E0A0E0B0E084839583A683B7838FE10F
:104C300091E0918380838FEF9FEF95878487EAE0EF
:104C4000F5E0138212828CE3868380E181871086EF
:104C5000178216861786108A118A128A10921F09E7
:104C600010921E09109221091092200981E0809370
:104C7000220921E331E031832083809324091092BB
:104C8000250980E190E090932A09809329090895ED
:104C9000CF93DF931F92CDB7DEB7789484B582604F
:104CA00084BD84B5816084BD85B5826085BD85B5D0
:104CB000816085BD80916E00816080936E0010924E
:104CC00081008091810082608093810080918100C9
:104CD000816080938100809180008160809380005A
:104CE0008091910082608093910080919100816019
:104CF00080939100809190008160809390008091DA
:104D0000C10084608093C1008091C1008260809363
:104D1000C1008091C10081608093C1008091C30077
:104D200081608093C3008091C00082608093C00046
:104D30008091C20081608093C20080917A0084607B
:104D400080937A0080917A00826080937A008091CB
:104D50007A00816080937A0080917A0080688093E5
:104D60007A001092F7041092F3041092F4048091E8
:104D7000D70081608093D70080EA8093D80089B5FE
:104D8000806189BD89B5826089BD09B400FEFDCF0F
:104D900061E070E080E090E00E94B2218091D80054
:104DA0008F7C80618093D8008091E000807F809329
:104DB000E0008091E1008E7E8093E1008DE08093A1
:104DC000E200559A209AEEEFFFE7859194918B3F90
:104DD0009C4D19F481E08093F2041FB7F894809100
:104DE0008E09811127C0E9E6F0E18491ECE3F0E15E
:104DF0009491E82FF0E0EE0FFF1FE05AFE4EA591D0
:104E0000B491EC91E92321F461E081E10E94562004
:104E100061E081E10E94B9208CB580618CBD8CB5C8
:104E200080648CBD61E08FE00E94B92061E080E188
:104E30000E94B92080918E098F5F80938E091FBFD9
:104E40000BE711E1F80184910E5F1F4F31966491D9
:104E5000882319F00E94B920F5CF61E086E00E9416
:104E6000562061E070E080E090E00E94B22160E0B6
:104E700086E00E9456206AE070E080E090E00E94A8
:104E8000B22161E086E00E945620E4E6F0E1E49180
:104E9000F0E0EE0FFF1FE65BFF4E8591949190933B
:104EA000940980939309E7E3F0E1E491E093920998
:104EB000ECE5F0E1E491F0E0EE0FFF1FE65BFF4E62
:104EC000859194919093910980939009EFE2F0E19C
:104ED000E491E0938F098CB58C7F8CBD8DB581609A
:104EE0008DBDE0919309F091940990818091920990
:104EF000982B9083A0919009B09191092C91909159
:104F00008F09909592239C9390818095892380832B
:104F1000EEE6F1E121E1EB37F20749F084918EBD35
:104F200000000DB407FEFDCF8EB53196F3CFE091B2
:104F30009009F0919109908180918F09892B80834C
:104F4000E0919309F0919409908180919209809564
:104F500089238083809164008160809364008091C4
:104F60006400826080936400809164008068809314
:104F70006400809164008064809364008091650087
:104F80008160809365000E94362287FF1AC080E00E
:104F900094E01EBC00000DB407FEFDCF2EB50197B6
:104FA000C1F760E070E08AE00E94F52060E070E008
:104FB0008BE00E94F52060E070E089E00E94F5201F
:104FC000FFCF85E00E94AB1E8DE00E94AB1E1092C9
:104FD000040582E090E00E947C2981110E943F2418
:104FE0008CE38093100580E18093130588E780931C
:104FF000890916E080E0E82E80E0F82E01E02FB766
:10500000F89480918A0990918B09A0918C09B091B4
:105010008D092FBF20911C05222391F020911405AA
:10502000382F321B30931D05209111053091120548
:105030002F5F3F4F309312052093110510921C05EE
:10504000409118055091190560911A0570911B0542
:1050500084179507A607B7077CF4481B423008F46D
:105060007AC083B7817F83BF83B7816083BF889510
:1050700083B78E7F83BF6FC020911305AC01BD0144
:10508000420F511D611D711D409318055093190564
:1050900060931A0570931B05809314059093150572
:1050A000A0931605B093170500931C05809127095E
:1050B000809326090E9436228093270980919509C2
:1050C00090919609189FF001199FF00D1124E75C4B
:1050D000FE4F0280F381E02D0995209195093091D2
:1050E0009609129FF001139FF00D1124E75CFE4F0B
:1050F0000480F581E02D8983099590911E059EBD60
:10510000EFE1F5E0898191910DB407FEFDCF9EBDE1
:1051100099E0EE31F907B9F70DB407FEFDCF88230A
:10512000D1F08091950990919609019719F081E04D
:1051300090E002C082E090E09093960980939509F8
:10514000189FF001199FF00D1124E75CFE4F0190AC
:10515000F081E02D0995E114F10409F450CF0E948B
:1051600000004DCF8F929F92AF92BF92CF92DF926D
:10517000EF92FF92CF93DF93EC01688179818A816E
:105180009B81611571058105910521F464E279ED3A
:105190008BE597E02DE133EF41E050E00E9492294A
:1051A00049015A019B01AC01A7EAB1E40E94B1296F
:1051B0006B017C01ACEEB4EFA50194010E94BF2904
:1051C000DC01CB018C0D9D1DAE1DBF1DB7FF03C0C3
:1051D0000197A109B04888839983AA83BB839F77ED
:1051E000DF91CF91FF90EF90DF90CF90BF90AF9085
:1051F0009F908F9008950E94B22808958CE091E0CE
:105200000E94B2280895A0E0B0E080930C01909332
:105210000D01A0930E01B0930F0108958F929F92FC
:10522000AF92BF92CF92DF92EF92FF92CF93DF9334
:10523000EC01688179818A819B8161157105810505
:10524000910521F464E279ED8BE597E02DE133EFF0
:1052500041E050E00E94922949015A019B01AC01B2
:10526000A7EAB1E40E94B1296B017C01ACEEB4EF76
:10527000A50194010E94BF29DC01CB018C0D9D1D6D
:10528000AE1DBF1DB7FF03C00197A109B0488883B9
:105290009983AA83BB83BC01CD019F77DF91CF9116
:1052A000FF90EF90DF90CF90BF90AF909F908F9046
:1052B00008950E940E29089580E191E00E940E2930
:1052C00008956093100170931101809312019093DF
:1052D00013010895FB01DC0105900D920020E1F718
:1052E0000895FC016150704001900110D8F780953D
:1052F00090958E0F9F1F0895F999FECF92BD81BDA5
:10530000F89A992780B50895262FF999FECF1FBAEC
:1053100092BD81BD20BD0FB6F894FA9AF99A0FBEDE
:1053200001960895052E97FB1EF400940E94A9296A
:1053300057FD07D00E94C42907FC03D04EF40C94FB
:10534000A92950954095309521953F4F4F4F5F4F7C
:10535000089590958095709561957F4F8F4F9F4FE1
:1053600008950E94E629A59F900DB49F900DA49FDB
:10537000800D911D11240895B7FF0C94B1290E944E
:10538000B129821B930B0895A1E21A2EAA1BBB1B05
:10539000FD010DC0AA1FBB1FEE1FFF1FA217B30701
:1053A000E407F50720F0A21BB30BE40BF50B661F17
:1053B000771F881F991F1A9469F7609570958095DB
:1053C00090959B01AC01BD01CF010895A29FB00152
:1053D000B39FC001A39F700D811D1124911DB29F29
:1053E000700D811D1124911D089597FB072E16F451
:1053F000009407D077FD09D00E940F2A07FC05D042
:105400003EF4909581959F4F0895709561957F4FDB
:105410000895EE0FFF1F0590F491E02D0994AA1B4B
:10542000BB1B51E107C0AA1FBB1FA617B70710F08F
:10543000A61BB70B881F991F5A95A9F780959095C1
:10544000BC01CD01089581E090E0F8940C94F52C16
:10545000AEE0B0E0EEE2FAE20C94CC2C0D891E89AD
:1054600086E08C831A8309838FEF9FE79E838D8369
:10547000AE01475E5F4F6F89788DCE0101960E9425
:105480004B2A2F813885F801E20FF31F10822E96E8
:10549000E4E00C94E82CACE0B0E0E1E5FAE20C9436
:1054A000BE2C7C016B018A01FC011782168283816C
:1054B00081FFBDC1CE0101964C01F7019381F60138
:1054C00093FD859193FF81916F01882309F4ABC10E
:1054D000853239F493FD859193FF81916F01853277
:1054E00029F4B70190E00E94282CE7CF512C312CF1
:1054F00020E02032A0F48B3269F030F4803259F091
:10550000833269F420612CC08D3239F0803339F454
:10551000216026C02260246023C0286021C027FDAE
:1055200027C030ED380F3A3078F426FF06C0FAE095
:105530005F9E300D1124532E13C08AE0389E300D2B
:105540001124332E20620CC08E3221F426FD6BC153
:10555000206406C08C3611F4206802C0883641F4FD
:10556000F60193FD859193FF81916F018111C1CF68
:10557000982F9F7D9554933028F40C5F1F4FFFE3C5
:10558000F9830DC0833631F0833771F0833509F02C
:105590005BC022C0F801808189830E5F1F4F4424C5
:1055A0004394512C540115C03801F2E06F0E711C68
:1055B000F801A080B18026FF03C0652D70E002C015
:1055C0006FEF7FEFC5012C870E9471292C018301A9
:1055D0002C852F77222E17C03801F2E06F0E711C38
:1055E000F801A080B18026FF03C0652D70E002C0E5
:1055F0006FEF7FEFC5012C870E941D2C2C012C859D
:105600002068222E830123FC1BC0832D90E04816C6
:105610005906B0F4B70180E290E00E94282C3A9439
:10562000F4CFF50127FC859127FE81915F01B70139
:1056300090E00E94282C31103A94F1E04F1A510862
:105640004114510471F7E5C0843611F0893639F5FB
:10565000F80127FF07C060817181828193810C5F0F
:105660001F4F08C060817181072E000C880B990BB9
:105670000E5F1F4F2F76722E97FF09C09095809571
:10568000709561957F4F8F4F9F4F2068722E2AE053
:1056900030E0A4010E94602CA82EA81844C08537D1
:1056A00029F42F7EB22E2AE030E025C0F22FF97FB8
:1056B000BF2E8F36C1F018F4883579F0B4C080372A
:1056C00019F0883721F0AFC02F2F2061B22EB4FE21
:1056D0000DC08B2D8460B82E09C024FF0AC09F2FF7
:1056E0009660B92E06C028E030E005C020E130E029
:1056F00002C020E132E0F801B7FE07C0608171818D
:10570000828193810C5F1F4F06C06081718180E0B0
:1057100090E00E5F1F4FA4010E94602CA82EA818D5
:10572000FB2DFF777F2E76FE0BC0372D3E7FA51415
:1057300050F474FE0AC072FC08C0372D3E7E05C0CE
:10574000BA2C372D03C0BA2C01C0B52C34FF0DC0C4
:10575000FE01EA0DF11D8081803311F4397E09C00C
:1057600032FF06C0B394B39404C0832F867809F047
:10577000B39433FD13C030FF06C05A2CB31418F491
:10578000530C5B18B32CB31468F4B70180E290E0BB
:105790003C870E94282CB3943C85F5CFB31410F4B9
:1057A0003B1801C0312C34FF12C0B70180E390E0F8
:1057B0003C870E94282C3C8532FF17C031FD03C076
:1057C00088E790E002C088E590E0B7010CC0832F25
:1057D000867859F031FF02C08BE201C080E237FDCC
:1057E0008DE2B70190E00E94282CA51438F4B7018F
:1057F00080E390E00E94282C5A94F7CFAA94F401F9
:10580000EA0DF11D8081B70190E00E94282CA110C3
:10581000F5CF332009F451CEB70180E290E00E9429
:10582000282C3A94F6CFF7018681978102C08FEF3A
:105830009FEF2C96E2E10C94DA2CFC01059061506C
:1058400070400110D8F7809590958E0F9F1F089596
:105850000F931F93CF93DF93FB01238121FD03C09F
:105860008FEF9FEF28C022FF16C046815781248109
:1058700035814217530744F4A081B1819D012F5F08
:105880003F4F318320838C93268137812F5F3F4F99
:105890003783268310C0EB01092F182F0084F18570
:1058A000E02D0995892BE1F68E819F8101969F83DA
:1058B0008E83812F902FDF91CF911F910F910895AB
:1058C000FA01AA27283051F1203181F1E8946F9331
:1058D0006E7F6E5F7F4F8F4F9F4FAF4FB1E03ED0D7
:1058E000B4E03CD0670F781F891F9A1FA11D680F75
:1058F000791F8A1F911DA11D6A0F711D811D911DA8
:10590000A11D20D009F468943F912AE0269F11241C
:105910003019305D3193DEF6CF010895462F477080
:10592000405D4193B3E00FD0C9F7F6CF462F4F70DB
:10593000405D4A3318F0495D31FD4052419302D039
:10594000A9F7EACFB4E0A6959795879577956795DF
:10595000BA95C9F700976105710508959B01AC01DF
:105960000A2E06945795479537952795BA95C9F706
:10597000620F731F841F951FA01D08952F923F92E1
:105980004F925F926F927F928F929F92AF92BF924F
:10599000CF92DF92EF92FF920F931F93CF93DF93FB
:1059A000CDB7DEB7CA1BDB0B0FB6F894DEBF0FBE58
:1059B000CDBF09942A88398848885F846E847D84A5
:1059C0008C849B84AA84B984C884DF80EE80FD80A7
:1059D0000C811B81AA81B981CE0FD11D0FB6F8941D
:0E59E000DEBF0FBECDBFED010895F894FFCFDE
:1059EE00FFFFFFFF00E100000000000001000000CB
:1059FE000100000000C1808100000000000000DAFC
:105A0E001615179A17F016FB16C2179E17000000F0
:105A1E0000A80FB51FDF0BDE0BDA0B620FE20B6473
:105A2E000E800E5A0C8716AF12F0102725303264F6
:025A3E00220044
:2070000055C000006EC000006CC000006AC0000068C0000066C0000064C0000062C0000043
:2070200060C000005EC00000F2C400005AC0000058C0000056C0000054C0000052C00000EE
:2070400050C0000078C000004CC000004AC0000048C0000046C0000044C0000042C00000BE
:2070600040C000003EC000003CC000003AC0000038C0000036C0000034C0000032C0000048
:2070800030C000002EC000002CC000002AC0000028C0000026C0000024C0000022C00000A8
