:100000000C94B00B0C94D80B0C94D80B0C94D80B0C
:100010000C94D80B0C94D80B0C94D80B0C94D80BD4
:100020000C94D80B0C94D80B0C9429180C949B1896
:100030000C94D80B0C94D80B0C94D80B0C94D80BB4
:100040000C94D80B0C947C220C94D80B0C94D80BE9
:100050000C94D80B0C94D80B0C94D80B0C949F21B7
:100060000C94D80B0C94D80B0C94D80B0C94D80B84
:100070000C94D80B0C94D80B0C94D80B0C94D80B74
:100080000C948D230C94D80B0C94D80B0C94D80B97
:100090000C94D80B0C94D80B0C94D80B0C94D80B54
:1000A0000C94D80B0C94D80B0C94D80B342037201C
:1000B00026202A202E205820582058203B203F2040
:1000C000432049204D2058205320CF20D420D92030
:1000D000E320ED20372137213721F72001210B21A3
:1000E0001521222137212A21000000000070010083
:1000F000C0000C00CAA77C0A42F5550853424819B3
:100100005EF55112003000000027450040941C00AD
:1001100014F3190504F11104200400000441100433
:1001200000040000104208015E14450F40F0010079
:100130005955551351555D0D8C927C085755550DE9
:100140005E55550D51520C015E55550F5655550FC4
:1001500000A0000000A4000000C2280080A2280027
:100160008062080040500D0000E318009C92241F9C
:100170005F555D0D9C1445115F1425075F555511A2
:100180005F5114015E54551D1F41101F40F445007E
:10019000100421071F41181D1F0441105EF0041FA9
:1001A0009C10041F5E54450F5F9214035ED4451FDC
:1001B0005F92341B5655550D41F005011F04210770
:1001C0001F4208011FE4410F1743181D07C1090111
:1001D00051564D1100F0450000F0010040F40100BF
:1001E00080100C00100441109075001E9074001EC9
:1001F0009073001E9071002880F090370078800086
:100200000A9036008C800014903500A080001E906B
:100210003400B4800028903300C88000329032004F
:10022000DC80003C903100F080004690300004807B
:10023000F05041555345004E4557205245434F52CB
:1002400044210000000000008080C0C0C0C0C08009
:100250000000008080C0C0C0C0800000008080C05E
:10026000C0C0C08000000080C0C0C0C0808000004E
:100270000080C0C0C0C0C08000000080C0C0C0C03E
:10028000C08000000000000000000000C0C0F8F8BE
:10029000C0C0C0C000000080C0C0C0C0800000005E
:1002A000FCFCFC0080C0C040400080C0C0C0C080DA
:1002B000800000C0C08080C0C0C08000000000007E
:1002C00000000000000000001D3D363636173F3F9D
:1002D00000000F1F3F303030391000000F1F3F303B
:1002E0003030391000000F1F3F3636363717000008
:1002F000111B333636363D1C0000111B33363636A3
:100300003D1C0000000000000000000000001F3F36
:100310003830303000000F1F393030391F0F0000E7
:100320003F3F3F07071F3C30200F1F3F3636363711
:100330001700003F3F3F0000003F3F00000000006B
:1003400000000000000000000000000000000000AD
:10035000000000000000000000000080C0E06060BD
:1003600060C0C0000060E0E08080E0E0600000E08D
:10037000E0C06060E0E0C0000060606062E7E7024B
:10038000000000E0E0C0C0606060000080C0E0608D
:100390006060C0C0000080C0E06060DEFEFE000063
:1003A000000000FCFC000000000000000000000055
:1003B000000000000000000000000000000000003D
:1003C000000000000000000000000000000000002D
:1003D0000000000000000000000000070F1F1B1BB2
:1003E0001B1B0B0000181C1F07070F1C180000FF29
:1003F000FFFF18181C1F0F0000000000001F1F0047
:100400000000001F1F01000000000000070F1F1B5D
:100410001B1B1B0B00000F1F1C18180F1F1F0000B9
:100420000000081D1D080000000000000000000082
:1004300000000000000000000000000000000000BC
:100440000000000000006060FCFC60606060000074
:10045000E0E0E00000E0E0E00000E0E0C0C060605C
:10046000600000FEFEFE6060E0E0C0000080C0E0D2
:100470006060E0C080000000000000006060FCFCE4
:1004800060606060000080C0E06060E0C0800000EC
:10049000FEFEFE80C0E06060600080C0E0606060E2
:1004A000C0C00000E0E0C0406060E0C0000080C06C
:1004B000E060606060C0000000FCFC000000000024
:1004C000000000000F1F1C18181800000F1F1F1835
:1004D000180F1F1F00001F1F010000000000001F59
:1004E0001F0F18181C1F0F0000070F1C18181C0FD7
:1004F000070000000000000000000F1F1C18181863
:100500000000070F1C18181C0F0700001F1F1F03F7
:10051000030F1E181000070F1F1B1B1B1B0B0000D7
:100520001F1F1F0000001F1F00000C0D191B1B1BAD
:100530001E0E0000081D1D080000000F0F03000F15
:100540000F030000000070888888880040A8A8A8D1
:10055000F000087E888800708888888800FE10086F
:1005600008F00000000000087E888800FE100808DF
:10057000F00070A8A8A830000000000000000000F3
:10058000000000000020F8202000C0202020C00033
:10059000F880402000C0A0A0A0C000E0402020C003
:1005A0000040A0A0A02000F8000000000000000013
:1005B0000000000000000000000000000000010238
:1005C0000200010202020100030001020001020216
:1005D0000200000300000003000202020201000208
:1005E000000000000000000000000000000000808B
:1005F000C06060600000000000000000000000001B
:1006000000000000000000000000000000000000EA
:1006100000000000000000000000000000000000DA
:100620000000606060C08000000000000080E07F8B
:10063000000000000080C0E070303070E0C080003A
:100640000000FFFF80C0E0703818000000FFFF309E
:10065000303030000080C0E070303070E0F0F000EA
:100660000000000000007FE080000000000107FEA5
:100670000000000000070F1C383030381C0F070046
:1006800000003F3F03070E1C3830000000070F1C1E
:100690003830300000070F1C383030381C1F3F3016
:1006A000000000000000FE07010000000000000143
:1006B0000306060600000000000000000000000025
:1006C000000000000000000000000000000000002A
:1006D000000000000000000000000000000000001A
:1006E00000000606060301000000007CFEC7FEFCB9
:1006F000C6FFFEFCC0C0E0E0E0E0E0E0C0C080C0BB
:1007000062321C0000000101030F0F03030F0F03EF
:100710000303030F0F03030F0F00007CFEC7FEFC53
:10072000C6FFFEFCC0C0E0E0E0E0E0E0C0C080C08A
:10073000C0623C000000010103030F0F03030F0F11
:1007400003030707030307070300007CFEC7FEFC43
:10075000C6FFFEFCC0C0E0E0E0E0E0E0C0C080809A
:100760000080F800000001010303030F0F030F0FC7
:10077000030F0F03030F0F030101007CFEDFFEFCDC
:10078000DEFFFEFCC0C0E0E0E0E0E0E0C0C080C012
:10079000C0623C00000001010303070703030707D1
:1007A00003030F0F03030F0F0300001C3262C0800E
:1007B000C0C0E0E0E0E0E0E0C0C0FCFEFFC6FCFE40
:1007C000C7FE7C00000F0F03030F0F030303030F8B
:1007D0000F03030F0F0301010000003C62C0C08043
:1007E000C0C0E0E0E0E0E0E0C0C0FCFEFFC6FCFE10
:1007F000C7FE7C00000307070303070703030F0F6F
:1008000003030F0F03030101000000F88000808044
:10081000C0C0E0E0E0E0E0E0C0C0FCFEFFC6FCFEDF
:10082000C7FE7C000101030F0F03030F0F030F0F1F
:10083000030F0F03030301010000003C62C0C080EE
:10084000C0C0E0E0E0E0E0E0C0C0FCFEFFDEFCFE97
:10085000DFFE7C0000030F0F03030F0F03030707E6
:1008600003030707030301010000004D454F570034
:10087000F00C0602E17979E102060CF000030604AF
:100880000908080904060300F00C069291F1F161D1
:1008900062060CF0000306040808080804060300BA
:1008A000F00C060279E1E17902060CF0000306047F
:1008B0000809090804060300F00C066261F1F191D1
:1008C00092060CF00003060408080808040603005A
:1008D00090480064800019904A0064800019904C90
:1008E0000064800019904D0064800019904F00C88A
:1008F00080F0464F5220234F4B54414E4531380033
:100900004F5A592D4341542056455220302E3034F1
:1009100000C0C6CFDFFFFB73037CFEFFC7E3FF7F92
:100920003E00FFFFFF1B1B1B03000303FFFFFF0332
:1009300003000000000000000000000000000000B4
:10094000000000000000000000000000008040A047
:1009500060A050B0F0101010202020408000000057
:1009600000E05CAA55AA55AA55AA55AAFF000000A6
:10097000000000000001021CE0073D6AD5AA55AA4C
:1009800055AA55AA55AB55AB55AB55AB55AB55AB69
:10099000FF00000000010306050A0D0A0D0A0D0AFA
:1009A0000D0A0D0A0D0A0D0A0F00000000000000DC
:1009B0000000000000000000000000000000000037
:1009C0000000000000000000000000000000000027
:1009D0000000000000000000000000000080C06077
:1009E000A060B050B0101010202020408000000007
:1009F00000E0BC56AB55AA55AA55AA55AA0000005E
:100A0000000000000001021CE0FFAA55AA55AA55EB
:100A1000AA55AA55AA55AB55AB55AB55ABD56B3DB1
:100A200007FFAA55AA55AA55AA55AA55FA0D0A0DA7
:100A3000060506030100000000FFAAD5AAD5AAD525
:100A4000AAD5AAD5FF0000000000000000000000A9
:100A500000FFAB55AB55AB55AB55AB55FF00000098
:100A6000000000000000000000FFAA55AA55AA558A
:100A7000AA55AA55FF000080402010101010101039
:100A8000F0FFAA55AA55AA55AA55AA55AB56A95082
:100A9000A0408000804020100FFFAA55AA55AA55FB
:100AA000AA55AA55EA556AD5AA55AA55AB56AC58C7
:100AB000F00F0A0D0A0D0A0D0A0D0A0D0F000000B5
:100AC0000103060D0A0D0A0D0F00000000000000D2
:100AD0000000000000000000000000000000000016
:100AE000009075001E9074001E9073001E9071009F
:100AF0002880F02D204F5A5A592054484520434110
:100B000054202D00004D41592032303138004144ED
:100B10004150544544204259204141524F4E504B80
:100B2000004F415554482E434F4D000052454C450F
:100B30004153454420554E44455200544845204DAC
:100B40004954204C4943454E5345004F524947496B
:100B50004E414C4C59204259204F424F4E4F00506D
:100B60004C41592054494D45202000504C415920BA
:100B7000434F554E5420005D20005B0042455354C6
:100B80002031302053434F524553004F4646004FCB
:100B90004E0053544152542047414D4500534F5548
:100BA0004E44200048492053434F5245530043527E
:100BB00045444954530000000000000000000000BC
:100BC00000F0E181010200040820408000000000E4
:100BD00000000000000000000000008040402020D5
:100BE00010101020C00000000000000000000000F5
:100BF00000000000000000000000000000000000F5
:100C0000000000000000C020101048A444021A3A5E
:100C10009201010D910D0101AA1A124234640810CB
:100C20001020C000000000000000000000000000D4
:100C300000000000000000000000000000000000B4
:100C4000603F0F0F1E0000000000000106080404B2
:100C500000040008080010080402010000004030F1
:100C60003C7EFF07010000000000000000000000C3
:100C70000000000000000000000000000000000074
:100C8000000080780601000080002000880022001B
:100C90000880F2F8F8F8F2C008002200880020006E
:100CA00080000001067880000000000000000000C5
:100CB0000000000000000000000000000000807E36
:100CC00000000000C0E0E030101010204080000064
:100CD00000F0000000804020101010103060C000B4
:100CE000000011264080000000000000000000000D
:100CF00000000000000000000000000000000000F4
:100D000000003FC00000000088002200880002C0F0
:100D1000FCFF3F3FBF3F3FFFFCC0020088002200B6
:100D20008800000000C03F0000000000000000003C
:100D300000000000000000000000000000598000DA
:100D4000000000030F1F1C18383838180C07E07813
:100D500032833278E0C3840C181818180C0F030083
:100D600000000080340300000000000000000000CC
:100D70000000000000000000000000000000000073
:100D8000000000030C10608000000280C880000397
:100D90008B002200080022000B03800048A04200C4
:100DA000008060100C030000000000000000000044
:100DB000000000000000000000000000000001042E
:100DC00008101020002020203030B8BC3E9F5F5F0C
:100DD0005F1F1F5F9F9F3F3E3CBCB83870301808B4
:100DE00008040200000000000000000000000000F5
:100DF00000000000000000000000000000000000F3
:100E000000000000000000000101020404090809BC
:100E10000B12101611161010090B0A080404020117
:100E200001000000000000000000000000000000C1
:100E30000000000000000000000000000000380278
:100E40000100000000000000000001073FF1C08029
:100E50001806069880413F1F070101C01610102098
:100E600040800000000000000000000000000000C2
:100E70000000000000000000000000000000000072
:100E80000000000000000000000000000000000062
:100E90000000000000000000000000000000000052
:100EA0000000000000000000000000000000000042
:100EB00000000000000000000000000000001E8094
:100EC00000000000000000C0000000000000010160
:100ED00003E703010000000020381B0000000000B1
:100EE00000FF000000000000000000000000000003
:100EF00000000000000000000000000000000000F2
:100F000000000000000000000000000000000000E1
:100F100000000000000000000000000000000000D1
:100F200000000000000000000000000000000000C1
:100F300000000000000000000000000000000000B1
:100F40000004081030301017001838787870787C5A
:100F50003813043C3E1E18010720203010080402FC
:100F60000100000000000000000000000000000080
:100F70000000000000000000000000000000000071
:100F80000000000000000000000000000000000061
:100F90000000000000000000000000000000000051
:100FA0000000000000000000000000000000000041
:100FB000000000000000080B00020202010009040A
:100FC00000000102020000052400100105240101B7
:100FD0000104240206052406000107058103100010
:100FE0004009040100020A00000007050202400057
:100FF00000070583024000000403090412010002F7
:10100000EF020140412336800001010203014172D9
:101010006475696E6F204C4C430041726475696E53
:101020006F204C656F6E6172646F000408020110DE
:101030004080401020408040800802040180402011
:101040001002011080102040402000000000250008
:1010500028002B002E0031000404040404030405BE
:101060000202020204030202020206060606060645
:1010700004040202020404030100F0FC0E06060E42
:10108000FCF00000030F1C18181C0F0300000C0CD0
:101090000CFEFE00000000001818181F1F1818187A
:1010A0000000181C0E0686CE7C380000181C1E1B83
:1010B0001918181800000C0CC6C6C6E6FC38000C3F
:1010C0001C18181818190F07000080C070380EFE81
:1010D000FE0000000303031B1B1F1F1B00007E7E7E
:1010E000666666E6C680000C1C181818181C0F07E8
:1010F0000000E0F8DC6C66E6C6860000030F1C18F2
:10110000181C0F0700000E0E060686F6FE1E0000D5
:101110000000001C1F070000000038FCC6C6C6C641
:10112000FC380000070F181818180F07000078FC8B
:10113000CE8686CEFCF00000181819190D0E070196
:10114000000000000200090F0000030401000C0071
:10115000000000000000000000000000000000008F
:1011600000000000240027002A002D003000D5F0E8
:101170008D14A1C881CFD9F1AF200014021302123F
:101180000215020702080204010C0106010000001A
:101190000000003E5B4F5B3E3E6B4F6B3E1C3E7C57
:1011A0003E1C183C7E3C181C577D571C1C5E7F5E05
:1011B0001C00183C1800FFE7C3E7FF0018241800C4
:1011C000FFE7DBE7FF30483A060E2629792926405B
:1011D0007F050507407F05253F5A3CE73C5A7F3E87
:1011E0001C1C08081C1C3E7F14227F22145F5F0019
:1011F0005F5F06097F017F006689956A60606060B5
:101200006094A2FFA29408047E040810207E20109F
:1012100008082A1C08081C2A08081E101010100CA8
:101220001E0C1E0C30383E3830060E3E0E060000F6
:1012300000000000005F00000007000700147F149A
:101240007F14242A7F2A1223130864623649562009
:10125000500008070300001C2241000041221C002E
:101260002A1C7F1C2A08083E0808008070300008ED
:1012700008080808000060600020100804023E51C1
:1012800049453E00427F4000724949494621414953
:101290004D331814127F1027454545393C4A4949BA
:1012A0003141211109073649494936464949291E24
:1012B0000000140000004034000000081422411413
:1012C00014141414004122140802015909063E4165
:1012D0005D594E7C1211127C7F494949363E41418D
:1012E00041227F4141413E7F494949417F090909E6
:1012F000013E414151737F0808087F00417F410052
:101300002040413F017F081422417F404040407F00
:10131000021C027F7F0408107F3E4141413E7F094D
:101320000909063E4151215E7F091929462649498E
:10133000493203017F01033F4040403F1F204020CE
:101340001F3F4038403F63140814630304780403CC
:101350006159494D43007F4141410204081020007A
:101360004141417F040201020440404040400003EB
:1013700007080020545478407F28444438384444B7
:101380004428384444287F385454541800087E09AF
:101390000218A4A49C787F0804047800447D4000CF
:1013A0002040403D007F1028440000417F40007CE9
:1013B000047804787C080404783844444438FC18E1
:1013C00024241818242418FC7C08040408485454C5
:1013D000542404043F44243C4040207C1C204020F2
:1013E0001C3C4030403C44281028444C9090907C59
:1013F0004464544C4400083641000000770000006B
:101400004136080002010204023C2623263C1EA1AC
:10141000A161123A4040207A38545455592155550B
:1014200079412154547841215554784020545579BC
:10143000400C1E527212395555555939545454594D
:1014400039555454580000457C410002457D420006
:1014500001457C40F0292429F0F0282528F07C540F
:101460005545002054547C547C0A097F493249492F
:1014700049323248484832324A4848303A4141219C
:101480007A3A42402078009DA0A07D3944444439F6
:101490003D4040403D3C24FF2424487E4943662B88
:1014A0002FFC2F2BFF0929F620C0887E090320542A
:1014B0005479410000447D413048484A3238404028
:1014C000227A007A0A0A727D0D19317D2629292F88
:1014D00028262929292630484D40203808080808A0
:1014E00008080808382F10C8ACBA2F102834FA00A2
:1014F000007B000008142A142222142A14089500E4
:10150000220095AA005500AAAA55AA55AA000000D3
:10151000FF00101010FF00141414FF001010FF0043
:10152000FF1010F010F0141414FC001414F700FF56
:101530000000FF00FF1414F404FC141417101F1013
:10154000101F101F1414141F00101010F0000000C2
:10155000001F101010101F10101010F010000000CD
:10156000FF101010101010101010FF10000000FFDE
:10157000140000FF00FF00001F10170000FC04F41F
:1015800014141710171414F404F40000FF00F714D7
:10159000141414141414F700F7141414171410105E
:1015A0001F101F141414F4141010F010F000001F7A
:1015B000101F0000001F14000000FC140000F010B9
:1015C000F01010FF10FF141414FF141010101F005F
:1015D000000000F010FFFFFFFFFFF0F0F0F0F0FF61
:1015E000FFFF0000000000FFFF0F0F0F0F0F384438
:1015F0004438447C2A2A3E147E02020606027E02F9
:101600007E0263554941633844443C04407E201EB9
:101610002006027E020299A5E7A5991C2A492A1CE8
:101620004C7201724C304A4D4D303048784830BCD5
:10163000625A463D3E494949007E0101017E2A2AFF
:101640002A2A2A44445F444440514A444040444A80
:1016500051400000FF0103E080FF000008086B6BB1
:10166000083612362436060F090F06000018180037
:1016700000001010003040FF0101001F01011E009A
:10168000191D1712003C3C3C3C0000000000060104
:101690001501260137014A015D01720188019F0190
:1016A000B801D201EE010B022A024B026E02930234
:1016B000BA02E40210033F037003A403DC0317041F
:1016C00055049704DD0427057505C80520067D0629
:1016D000E0064907B8072D08A9082D09B9094D0AE0
:1016E000EA0A900B400CFA0CC00D910E6F0F5A10C5
:1016F00053115B1272139A14D41520178018F51920
:10170000801B231DDE1EB420A622B524E426342926
:10171000A72B402E0031EA330037453ABC3D6841E3
:101720004C456B49C84D68524F57805C00621011A0
:101730001213151617181A1C1D1F21232527292CD3
:101740002E3134373A3E4145494E52575C62686EFD
:10175000757B838B939CA5AFB9C4D0DCE9F7BE251C
:1017600011241FBECFEFDAE0DEBFCDBF11E0A0E055
:10177000B1E0E4E5F9E502C005900D92A235B107AC
:10178000D9F729E0A2E5B1E001C01D92AD3BB20757
:10179000E1F71BE0C0EBDBE004C02197FE010E94F3
:1017A000BC29CF3AD107C9F70E94FB250C94A82C7D
:1017B0000C94000088E7809388090895089580E0DC
:1017C00090E008958F929F92AF92BF92CF92DF9256
:1017D000EF920F93CF93DF930E944F1E20918809C1
:1017E00088E790E0821B910968E270E00E94A829D6
:1017F0004B0181E3C82E89E0D82E98E1A92EB12CA7
:10180000C0E0D0E081E090E0C815D90511F080E09B
:1018100090E02091E504289FB001299F700D1124CC
:10182000685F7F4FEE24E39400E328E1A601C50141
:101830000E94951C219689E1A80EB11C80E9C80E72
:10184000D11CC330D105F1F608E020E241E159E0B6
:101850006EE270E084E490E00E94951C80E190E0EC
:1018600090931E0980931D098AE390E090932009CC
:1018700080931F0960E079E089E095E00E94D01F25
:101880008CE190E090931E0980931D09109220092D
:1018900010921F0962EF78E089E095E0DF91CF9127
:1018A0000F91EF90DF90CF90BF90AF909F908F906F
:1018B0000C94D01F2F923F924F925F926F927F9223
:1018C0008F929F92AF92BF92CF92DF92EF92FF9250
:1018D0000F931F93CF93DF93CDB7DEB766970FB605
:1018E000F894DEBF0FBECDBF8091EC04882309F4CD
:1018F000B0C10E944F1E8091EB04813009F482C078
:1019000060F0823009F0A3C108E010E083EFE82E18
:101910008AE0F82E9DEFD92E71C1EE24E39400E405
:1019200020E846EB5BE060E070E080E090E00E9441
:10193000951C6091E9047091EA046115710569F0E4
:1019400010921E0910921D091092200910921F0971
:1019500080E090E04AE00E94D61EE8E2EE2EF12CF4
:1019600000E010E0F2E9CF2EFBE0DF2EB601CE0161
:1019700001960E941D298091E804082E000C990B05
:101980000817190719F084E490E002C080E490E0A1
:1019900090931E0980931D09F0922009E0921F097F
:1019A000BE016F5F7F4F89E095E00E94F41F0196B2
:1019B000C80ED91E0130110569F48091E704811128
:1019C00003C06BE87BE002C06FE87BE089E095E054
:1019D0000E94D01F0F5F1F4F26E0E20EF11C043063
:1019E000110521F66091E80436E06302B00111248C
:1019F000685D7F4F01E025E045E088E390E00E94CC
:101A0000341B25C186E190E090931E0980931D0947
:101A100084E090E09093200980931F096CE77BE0BD
:101A200089E095E00E94D01FEDE9F5E090E89E0F77
:101A30008081806181939E13FBCF5DE9252E59E063
:101A4000352E812C912C5401839474E0E72EF12CD7
:101A5000240135013EE0C32ED12C00E010E09401BA
:101A600021503109C801820F931F099719F486E0AC
:101A700090E002C080E090E0A701481B590B509312
:101A80001E0940931D09D0922009C0921F096AE7E0
:101A90007BE089E095E02D8B3E8B0E94D01F4AE0D1
:101AA000C301B2010E94D61E67E77BE089E095E0A2
:101AB0000E94D01FF801EE0FFF1FE20DF31D6081A1
:101AC000718180E090E04AE00E94D61E0F5F1F4FB8
:101AD00056E0C50ED11C8FEF481A580A680A780ADA
:101AE0002D893E890530110509F0BCCF9CE3E90E34
:101AF000F11C2AE0220E311C35E0830E911CA11C42
:101B0000B11C4CE7E416F10409F0A2CFEDE9F7E0CF
:101B100090E89E0F8081806181939E13FBCF00E14E
:101B200010E010931E0900931D0980E390E090934C
:101B3000200980931F096BE67BE089E095E00E9415
:101B4000D01F60919B0970919C0980E090E04AE071
:101B50000E94D61E10931E0900931D0986E390E093
:101B60009093200980931F096FE57BE089E095E061
:101B70000E94D01F609197097091980980919909EE
:101B800090919A0920E13EE040E050E00E947729E0
:101B9000CA01B9014AE00E94D61E6091970970916E
:101BA00098098091990990919A092CE3C22ED12C21
:101BB000E12CF12CA70196010E947729CA01B901F5
:101BC000A70196010E9477299F938F937F936F932C
:101BD0008BE491E09F938F938E010F5F1F4F1F93B4
:101BE0000F930E94DB29B80189E095E00E94F41F61
:101BF0000FB6F894DEBF0FBECDBF29C0B701CE012E
:101C000001960E941D2964E170E0CE0101960E94B8
:101C10002429282F3D2D3203C0011124805C9F4FC1
:101C200090931E0980931D091093200900931F09AA
:101C3000BE016F5F7F4F89E095E00E94F41F01961F
:101C4000E80EF91E0A5F1F4F0E331105B9F6109208
:101C5000EC0466960FB6F894DEBF0FBECDBFDF91E1
:101C6000CF911F910F91FF90EF90DF90CF90BF9099
:101C7000AF909F908F907F906F905F904F903F902C
:101C80002F9008951092E4041092E0041092E10461
:101C90001092E2041092E30488E790E09093DF044E
:101CA0008093DE0480E29CE19093DD048093DC0469
:101CB0001092DB041092DA0460E080ED98E00C945E
:101CC000DB1ACF931092EB041092E80481E080932A
:101CD000EC04C0910805CC2319F00E94F22302C045
:101CE0000E94E523C093E70480919609811103C007
:101CF000CF910C942F25CF9108950F931F93CF93DD
:101D00008091EB0481116BC080E80E940D1B882339
:101D1000A1F08091E804882311F0815001C083E094
:101D20008093E8044AE050E060E070E088EB91E0E6
:101D30000E941B1C81E08093EC0480E10E940D1B3B
:101D40008823A9F08091E804833021F08F5F80938D
:101D5000E80402C01092E8044AE050E060E070E05D
:101D600088EB91E00E941B1C81E08093EC048CE0E6
:101D70000E940D1B882309F488C08091E8048130FB
:101D800099F054F4811126C06091080582E090E03A
:101D90000E943729C1E01FC0823091F08330D1F416
:101DA00082E08093EB0414C0C091E704C82719F0C7
:101DB0000E94F22302C00E94E523C093E70408C0FA
:101DC00081E08093EB040E94B6251092E60402C0E5
:101DD0000E94B625C0E081E08093EC0457C08130BA
:101DE00009F047C080E40E940D1B882309F441C01C
:101DF000C091E604CA3080F42EE1C29FC0011124D4
:101E000044E150E060E070E0855B9D4F0E941B1C48
:101E1000CF5FC093E6042AC044E150E060E070E088
:101E20008AE292E00E941B1C62E081EE9AE00E942E
:101E3000DB1A1092E60480E493E0909329098093E2
:101E4000280908E010E060E070E0CB010E94FF1B71
:101E500001501109C1F781E0809396090E942F2556
:101E60001092EA041092E9041092EB0481E080934E
:101E7000EC048CE00E940D1B882339F01092EB04D7
:101E80000E94B62581E08093EC04C0E00E94B12856
:101E90008C010E944021012E000C220B330B602785
:101EA000712782279327611571058105910511F02E
:101EB0000E9414298C2FCF911F910F910895CF92DA
:101EC000DF92EF92FF928091880981508093880978
:101ED00090E00F9763E070E00E94A8298EEAC82E78
:101EE00083EAD82E8BEBE82E88EBF82E04C0F6940C
:101EF000E794D794C7946A95D2F781E0C822DD248D
:101F0000EE24FF248C2D81708093E5046FEF70E048
:101F10008AE00E94A8206FEF70E08BE00E94A8206A
:101F20008FE7C89EC02C11246FEF70E06C19710907
:101F300089E00E94A82081E090918809911180E0B9
:101F4000FF90EF90DF90CF9008952F923F924F92A5
:101F50005F926F927F928F929F92AF92BF92CF9239
:101F6000DF92EF92FF920F931F93CF93DF93CDB742
:101F7000DEB762970FB6F894DEBF0FBECDBF6A30F2
:101F800091F4FC01E85EFB4F408132972081318162
:101F900056E0459F200D311D112431832083329757
:101FA00011821082FFC020EE260F203408F0FAC004
:101FB0009A8B898B885E9B4F99878887DC018C91EF
:101FC000E989FA89E55EFB4F30813A83E989FA892C
:101FD000E65EFB4F30813B83E989FA89EA5EFB4F7D
:101FE0004080518049895A894C5E5B4F5E834D83A6
:101FF000DA010D911C91003811050CF0A4C0B0E479
:102000004B1651040CF09FC0282E312C9801E5E0AE
:102010008E9F200D311D112437FD95C09201F6E0F1
:102020008F9F200D311D112437FD8DC031E0398384
:102030003A814B81341301C0198254E0659FF0014D
:102040001124E859FF4FC590D590E590F490813068
:1020500039F0380136E0A82FB0E0BF87AE8738C02E
:1020600036E0832E520196E0992EC0FC05C03981DE
:10207000332349F02A8101C02B81A501B801898948
:102080009A890E940024F694E794D794C7949A946E
:102090004FEFA41AB40A9110E8CF8A940F5F1F4F34
:1020A0008110E0CF50C0C0FC1CC0598151111CC030
:1020B000F694E794D794C7948C8181508C83020D59
:1020C000131D8111F0CF3150620C731C3323D9F1F1
:1020D000820156E05C83C301820D931D9D878C872E
:1020E000E2CF9B819F8302C0AA81AF834301EE852B
:1020F000FF85E00FF11FFB87EA874C855D8584161D
:102100009506B4F6580117FF12C0A12CB12C0FC0D0
:10211000A816B906A4F42F81A501B40189899A896A
:10212000388B0E940024FFEFAF1ABF0A38898A85D6
:102130009B858134910564F380E490E0E9CF2FEF33
:10214000821A920ADACFA885B9852C91422F50E0E5
:10215000ED81FE8180819181F6E02F9F800D911DA0
:102160001124AD81BE818D939C93E989FA89E75E44
:10217000FB4F20812223B1F06AEF64039001659F39
:10218000300D112420583F4F281739075CF4A989D6
:10219000BA89ED91FC9111970190F081E02D6AE0F0
:1021A000CD01099581E090E062960FB6F894DEBF0C
:1021B0000FBECDBFDF91CF911F910F91FF90EF9098
:1021C000DF90CF90BF90AF909F908F907F906F9057
:1021D0005F904F903F902F900895CF92DF92EF92B3
:1021E0000F931F93CF93DF938091D904882309F431
:1021F0009DC1C091D804CA3240F08091E40481307E
:1022000021F48091DE0480FF91C10E944F1E80E086
:1022100090E00E941F1B8FE790E00E941F1B80E44C
:1022200090E06C01CC1AD108C8E5D4E000E010E0E1
:102230000C151D058CF44981042E000C550B68818A
:10224000062E000C770B21E089E095E00E94002427
:102250000F5F1F4F2296ECCF8091E4048330E1F4AE
:1022600080915701882309F455C02091560130E030
:102270002C50310930931E0920931D09869590E05A
:102280008E969093200980931F096BE678E089E091
:1022900095E00E94D01F3EC0E8E5CE2EE1E0DE2EA4
:1022A000C4E0D0E018E1D601ED91FC91F7FD29C022
:1022B00076E0F595E7957A95E1F73497CF01BE0181
:1022C0000E94A829189FA001199F500D1124405960
:1022D000574FD60112962D913C91139737FF02C0AC
:1022E000215C3F4F66E0359527956A95E1F7B90186
:1022F00064507109EE24E3940CE02CE0CF010E94BD
:10230000951CB6E0CB0ED11CE8E5CE16E4E0DE0667
:1023100051F6A6CFC0905601D12CFCE0CF1AD108BF
:10232000C09155018C2F807100E023E048E067E305
:1023300070E0D601A80FB11DCD010E94341BC695D7
:10234000C695B0E3CB9FA00111244551594FEE240F
:10235000E3940CE028E164E370E0C6010E94951C60
:10236000C091E404C11118C08091DE049091DF0493
:10237000C89700E220E44BEE55E060E170E0880F82
:10238000991F0E94951C03E128E343E455E060E0B7
:1023900070E084E290E04DC06091DA047091DB045B
:1023A00040E082E090E00E94FF1D8091DC0490916B
:1023B000DD0480312EE092070CF463C060E17EE022
:1023C0000E94A8296C0140E08CE590E00E94FF1D6E
:1023D000EE24E39404E024E04BE355E060E070E099
:1023E00086E690E00E94951CC6016CE370E00E94B6
:1023F000A82942E084E790E00E94FF1DC130E1F48B
:102400008091DC049091DD049C0125553640243BED
:102410003105A0F587709927EE24E39404970CF01A
:10242000E12C0EE02CE743E454E060E170E082E050
:1024300090E00E94951C22C0C23009F061C0C0909B
:10244000DE04D090DF04EBECCE16E1E0DE06B4F162
:102450006AEC71E06C197D09660F771F645F7F4F2E
:10246000EE24E39400E220E843E452E080E090E0D0
:102470000E94951C8091540181112CC01092D904A6
:1024800055C06CE370E00E94A8296C0142E082E62E
:1024900090E00E94FF1DEE24E39404E028E04BE36B
:1024A00055E060E070E08CE690E00E94951CC6016B
:1024B00066E070E00E94A82940E09CCFF5EACF16C4
:1024C000F1E0DF0624F0B60161707727C7CF6CE03A
:1024D00070E0C6CFC60168E070E00E94A8290497AA
:1024E0006CF68FE190E090931E0980931D098EE2B7
:1024F00090E09093200980931F0967E372E011C078
:10250000C33009F0BBCF81E390E090931E09809324
:102510001D098EE290E09093200980931F0961E3EA
:1025200072E089E095E00E94D01FA8CFDF91CF91A3
:102530001F910F91EF90DF90CF9008952F923F92CF
:102540004F925F926F927F928F929F92AF92BF92C3
:10255000CF92DF92EF92FF920F931F93CF93DF936F
:10256000CDB7DEB727970FB6F894DEBF0FBECDBF4D
:102570009091E404933041F58CE00E940D1B882378
:1025800041F081E08093E4049EE1909353018093B5
:10259000D90480E127960FB6F894DEBF0FBECDBFF9
:1025A000DF91CF911F910F91FF90EF90DF90CF902F
:1025B000BF90AF909F908F907F906F905F904F9063
:1025C0003F902F900C940D1B80915601911113C0D8
:1025D00040E450E0481B510921E030E01416150694
:1025E00014F020E030E0952F991F9927991F291B9F
:1025F0003109820F1FC09091260995FB442740F9AD
:1026000050E096FD05C022273327241B350B04C05C
:1026100021E030E0241B350B6901C80ED11CC60136
:102620001816190634F48138910524F080E890E0FA
:1026300001C080E08093560180915501211531053C
:1026400039F08F5F8F702130310519F4806101C03E
:1026500080718093550180915701882321F081502A
:10266000809357010DC080E10E940D1B882341F02B
:1026700088E08093570162E088EE91E00E94DB1AC7
:102680003091D8042090DC043090DD042091560174
:1026900060EC6203A00111245A83498380905201A7
:1026A0004090DA045090DB04E8E5F1E08CE591E03D
:1026B0009C838B834DE551E0D12C66246A94762C63
:1026C00097E4A92EB12CFE83ED830081118117FDC3
:1026D000C6C062817381AB81BC818C91080F111DD2
:1026E00087FD1A9511830083DA012C917B01E20E9C
:1026F000F11C27FDFA94F382E2822F5F2C93313193
:10270000E0F40F3F110509F01CF4A0E0B1E005C0B2
:1027100001301F41F4F0A0E0BFE1B183A083BDEF21
:102720008B02C001112497FD039695958795959589
:102730008795AB81BC818C930CC00F3F110521F0B4
:102740001CF001301F412CF071826082B382A282A2
:102750003150E080F18002811381121413040CF0D7
:1027600078C001158FE018070CF473C061157F4025
:1027700008F06FC089819A818E0D9F1DBC017D5F1D
:102780006130764008F065C097FDCF9616E09595CC
:1027900087951A95E1F7AB81BC81BC91BF8327FD7A
:1027A0002F5F2595219569E0261667E0360624F00F
:1027B000049702E010E003C0089703E010E060E037
:1027C00070E02852C12CAFE0DA2EAD81BE811396A5
:1027D000DC92CE921297DF80D80E1496DC926C01B8
:1027E00097FF04C0CC24DD24C81AD90AC20EAD81DB
:1027F000BE811596CC926F5F7F4F08966017710768
:1028000011F161157105F1F237FDDCCFC82CD12C27
:10281000AFEFCA1ADA0AE894C7F8DD248C2CB6E0C8
:102820009B2E9C9CD0019D9CB00D1124A85ABE4F9C
:10283000CD90DC901197D7FEE9CFBE83AD83ED92AA
:10284000FC923F5FBFCFBFEF4B1A5B0ADD24D394EE
:1028500006C0013811411CF07182608231503696F9
:102860008B819C8106969C838B834A5F5F4F94E0AB
:10287000E835F90709F027CF809252013093D80448
:102880005092DB044092DA04DD2081F0A9E02A16A0
:10289000A7E03A061CF480E897E002C080EA95E0E1
:1028A0004FE050E060E070E00E941B1C2091D804D3
:1028B00080E490E0821B9109181619067CF0809143
:1028C000DE049091DF0401979093DF048093DE048F
:1028D0002091E404222309F458C074C068E5262E30
:1028E00064E0362E09E514E072E0C72ED12CE12C0D
:1028F000F12CE0E88E2E912CA12CB12C0E940F29F6
:10290000F1014080042C000C55086608770823E08C
:1029100030E040E050E00E944529DC01CB01019706
:10292000A109B109480E591E6A1E7B1ED1014C92A5
:102930000E940F29F8014080042C000C55086608FD
:102940007708A70196010E944529DC01CB01840D7F
:10295000951DA61DB71DF8018083803454F00E9498
:102960000F29A50194010E944529D1016C93F8011A
:102970001082F2E02F0E311C0E5F1F4F48ED24161F
:1029800044E0340609F0BACF9ACF8C339105A9F40C
:1029900080E090E1909359018093580180E098E0A5
:1029A00090935B0180935A0110925C0180EC8093BC
:1029B0005D0181E08093D8045AC0892B09F057C08B
:1029C00081E036C1213009F047C08091DC0490914C
:1029D000DD04181619062CF401979093DD048093FA
:1029E000DC048091E0049091E104A091E204B091B4
:1029F000E3040196A11DB11D8093E0049093E104CE
:102A0000A093E204B093E3042091D80421111AC0EA
:102A100022E02093E4042091DA043091DB04309327
:102A2000EA042093E904E1EBF9E05AE0A52EB12C89
:102A3000A50141505109729162916217730708F420
:102A4000ECC02DC080915301811111C08CE00E9417
:102A50000D1B8111ECC00BC0223049F48091530151
:102A6000811105C08CE00E940D1B8111E4C0809192
:102A7000530118161CF481508093530181E0809318
:102A8000D9048091E404823041F481E02091DE0495
:102A90003091DF04232B09F4D4C080E0D2C0EAE0F7
:102AA000AE16B10439F0F501EE0FFF1FE356F64FF5
:102AB0003183208320919B0930919C092F5F3F4FE8
:102AC00030939C0920939B09409197095091980954
:102AD0006091990970919A09840F951FA61FB71FDD
:102AE0008093970990939809A0939909B0939A09B4
:102AF00080919609813061F480E493E090932909F4
:102B0000809328096FE472E48EE493E00E94FF1B37
:102B1000C5018E559E4F880F991F90932909809368
:102B200028098C01045413407501C12CD12C8AE072
:102B3000E816F10481F0F601E00FF11FE356F64FBD
:102B4000808191810E94F01B5FEFE51AF50A62E037
:102B5000C60ED11CECCF80919B0990919C090E94DC
:102B6000F01B609197097091980980919909909153
:102B70009A090E94FF1BEDE9F9E04BEE58E420E0D2
:102B800030E061917191D9011396A69FC001A79F72
:102B9000900DB69F900D1124480F591F2F5F3F4F86
:102BA0002A30310571F7C0909709D0909809E090CC
:102BB0009909F0909A098EE08C9D90018D9D300DC1
:102BC000112460919B0970919C09EDE0E69FC00182
:102BD000E79F900D1124820F931F6FE06E9D90016F
:102BE0006F9D300D1124820F931F840F951F0E943B
:102BF000F01B82E08093960981E0A11080E0809331
:102C0000540180EE91E09093DF048093DE0461E054
:102C10008AEF91E00E94DB1A2ACF4930510529F052
:102C2000738362834115510549F05A0101CF83E056
:102C30008093E4041CCF0E94420E19CFA12CB12C2A
:102C400032CF27960FB6F894DEBF0FBECDBFDF910F
:102C5000CF911F910F91FF90EF90DF90CF90BF9099
:102C6000AF909F908F907F906F905F904F903F902C
:102C70002F9008958F929F92AF92BF92CF92DF9242
:102C8000EF92FF920F931F93CF93DF93E8E5F1E06C
:102C90008FEF9FEF91838083369624E0E835F2072B
:102CA000C9F71092D80410925201C0E0D0E080E839
:102CB000882E912CA12CB12C90E4C92ED12CE12C82
:102CC000F12C0E940F298E01085A1B4FA501940177
:102CD0000E944529F80160830E940F29A7019601EF
:102CE0000E944529F80161832296C038D10549F731
:102CF00080EA809356011092550110925701DF919E
:102D0000CF911F910F91FF90EF90DF90CF90BF90E8
:102D1000AF909F908F900C94420ECF93DF931F92B1
:102D2000CDB7DEB76983DC01ED91FC910280F381C0
:102D3000E02D41E050E0BE016F5F7F4F09950F909D
:102D4000DF91CF91089583E08093E9008091F200B4
:102D5000882319F08AE38093E8000895FC018485B4
:102D6000958597FD0BC09FB7F89482E08093E900AA
:102D70008091F2009FBF90E0019608959FB7F8946C
:102D800082E08093E9008091F2009FBF90E0089577
:102D90008F929F92AF92BF92CF92DF92EF92FF926B
:102DA0000F931F93CF93DF935C016B017A018091A6
:102DB0000B01882309F45BC08091F604882309F491
:102DC00056C08091F30480FF05C08091E0008260CE
:102DD0008093E000E70110E00AEF83E0882E9AE399
:102DE000992E2097D9F10E94431F81110AC00150EA
:102DF00009F43DC061E070E080E090E00E94652150
:102E0000F0CF282F30E0C217D3070CF48C2F4FB728
:102E1000F8948092E9009091E80095FF1DC0282F5A
:102E200030E0C21BD30BF601982F915020F0819116
:102E30008093F100FACFC20ED31E112319F09092A5
:102E4000E80009C08091E80085FD06C09092E80086
:102E500011E0209709F010E04FBFC3CF1111C3CF8D
:102E60005D9884E68093F4041E141F0444F081E00E
:102E700090E0F5019383828380E090E001C0C70178
:102E8000DF91CF911F910F91FF90EF90DF90CF9046
:102E9000BF90AF909F908F9008950E94431F90E045
:102EA00008950F931F93CF93DF931F92CDB7DEB793
:102EB0008C01FC018485958597FF0EC0CE0101969B
:102EC0000E94191F019719F4298130E002C02FEFE9
:102ED0003FEFF80135872487F801848595850F90A9
:102EE000DF91CF911F910F910895CF93DF931F92A0
:102EF000CDB7DEB7FC018485958597FD05C02FEF22
:102F00003FEF358724870BC0CE0101960E94191F21
:102F1000019719F4898190E002C08FEF9FEF0F9025
:102F2000DF91CF910895CF92DF92EF92FF920F93AE
:102F30001F93CF93DF931F92CDB7DEB7182F062FC5
:102F4000E42E862F880F8E5F99830E94951F83E061
:102F50000E94951FF12EC12E9981D92E8C2D8F198B
:102F6000801798F4F601E7FE02C0849101C08081C9
:102F70000E94951F182F80E00E94951F8123FFEF6C
:102F8000CF1ADF0A8111EACF01C081E00F90DF91F3
:102F9000CF911F910F91FF90EF90DF90CF90089508
:102FA000DF92EF92FF920F931F93CF93DF93D82E70
:102FB0008A017B01E40EF51EEB01CE15DF0571F0F1
:102FC000D7FE03C0FE01849101C088810E94951F35
:102FD00021968111F2CF8FEF9FEF01C0C801DF91E1
:102FE000CF911F910F91FF90EF90DF9008950F9375
:102FF0001F93CF93DF931F92CDB7DEB782E0898313
:1030000042E450E066EB7FE080E80E94D0170E9427
:10301000541FDC0112960D911C9113970115110597
:1030200069F0D801ED91FC910280F381E02DBE01A1
:103030006F5F7F4FC801099597FF07C089810F9087
:10304000DF91CF911F910F910895F80100851185AF
:10305000E5CF1F920F920FB60F9211248F939F937B
:103060008091E1009091E100937F9093E10083FFD4
:103070000FC01092E90091E09093EB001092EC00E9
:1030800092E39093ED001092F60498E09093F00094
:1030900082FF20C093E09093E9009091F200992381
:1030A00019F09AE39093E8009091F404992339F091
:1030B0009091F40491509093F404992389F19091A4
:1030C000F504992339F09091F50491509093F5040B
:1030D000992341F184FF10C08091E2008E7E8160CF
:1030E0008093E2008091E1008F7E8093E1008091E7
:1030F000F3048E7E806111C080FF16C08091E200D3
:103100008E7E80618093E2008091E1008E7E8093CC
:10311000E1008091F3048E7E81608093F30404C00B
:103120005D9ACDCF289AD6CF9F918F910F900FBEE9
:103130000F901F9018951F920F920FB60F921124A7
:10314000CF92DF92EF92FF920F931F932F933F93B3
:103150004F935F936F937F938F939F93AF93BF939F
:10316000EF93FF93CF93DF93CDB7DEB76C97DEBFBE
:10317000CDBF1092E9008091E80083FFEDC168E0C7
:10318000CE0145960E94C31F82EF8093E8008D898F
:1031900087FF05C09091E80090FFFCCF03C09EEF31
:1031A0009093E800982F907609F0C6C09E892F89E9
:1031B000188D91110CC0803829F48091F20480930D
:1031C000F10002C01092F1001092F10048C1422FAC
:1031D00050E0512B913051F4811141C141305105E2
:1031E00009F03DC18091F2048D7F0BC0933061F4F2
:1031F000811135C14130510509F031C18091F2048E
:1032000082608093F2042BC1953041F48091E800F4
:1032100080FFFCCF20682093E30021C1963009F0A5
:103220005FC0EB8CFC8C1092E9001092F0041092BD
:10323000EF04123091F51092EE041092ED040E940A
:10324000F71799E0BE016F5F7F4FDB01E92F1D92F9
:10325000EA95E9F799831A8391E09E8390EA98872B
:103260009AEF99872091EF043091F004275F3F4F48
:103270003C832B838D831092E9001092F00410920E
:10328000EF04F092EE04E092ED0449E050E080E0BB
:103290000E94D0170E94F717E2C0F092EE04E0926D
:1032A000ED040E94541FDC011296ED90FC901397E0
:1032B000E114F10409F4C0C0D701ED91FC91048040
:1032C000F581E02DBE016B5E7F4FC7010995009728
:1032D00019F00CF0C4C0C7C0F701E084F184E8CF56
:1032E000973009F4C0C0983021F481E08093F10058
:1032F000B6C0993009F0B3C0837009F0B4C0E5E1FD
:10330000F1E081E021E036E39081992361F0809340
:10331000E9002093EB0091919093EC003093ED0045
:103320008F5F873089F78EE78093EA001092EA007A
:103330008F898093F60493C08B8D9C8D1092E90049
:103340001092F0041092EF049093EE048093ED0439
:10335000898D811156C08E899D89913A59F48132A7
:1033600009F081C047E050E064E071E080E00E9435
:10337000D01775C0913209F076C0833289F4888DF8
:1033800090E0982F88272F89822BA0E0B0E08093CF
:10339000000190930101A0930201B09303015FC06B
:1033A000803269F48091E80082FFFCCF67E084E01E
:1033B00091E00E94C31F8BEF8093E80006C0823229
:1033C00009F04DC08F8980930B018091F10488230F
:1033D00019F0EEEFFAE002C0E0E0F8E080910401BD
:1033E00090910501A0910601B0910701803B9440A6
:1033F000A105B10509F07BC080910B0180FF93C04E
:1034000076C00E94541FDC0112960D911C911397F7
:103410000115110541F1D801ED91FC910190F08168
:10342000E02DBE016B5E7F4FC8010995811117C069
:10343000F80100851185ECCF113009F44EC013302E
:1034400091F48F89882309F445C0823081F440E8E3
:1034500060E18AE190E10E949317882321F08EEFCA
:103460008093E80079C081E28093EB0075C08130E1
:1034700029F440E86BE08EE090E1EDCF833099F7DE
:103480000E94541FDC011296ED90FC9013978E0160
:103490000F5F1F4F6801E114F10479F0D701ED913E
:1034A000FC910680F781E02DB801C7010995080F4E
:1034B000111DF701E084F184EECFD8011C92F601D2
:1034C00001900020E9F73197BF016C197D0940E0B8
:1034D000C601C1CF68EF7FE002C06CEF7FE06115ED
:1034E000710509F2FB01449150E080E840CF0FB62E
:1034F000F894A89580916000886180936000109294
:1035000060000FBEA895EE3F2AE0F20739F08091E7
:10351000FE0A9091FF0A91838083A1CF1092FF0A47
:103520001092FE0A9CCFEE3F8AE0F80731F08081CE
:1035300091819093FF0A8093FE0A87E797E7918332
:1035400080839BE088E10FB6F894A8958093600093
:103550000FBE9093600083CF6C960FB6F894DEBFD9
:103560000FBECDBFDF91CF91FF91EF91BF91AF9192
:103570009F918F917F916F915F914F913F912F918B
:103580001F910F91FF90EF90DF90CF900F900FBEA3
:103590000F901F901895682FF999FECF80912809F8
:1035A000909129099C012F5F3F4F30932909209367
:1035B00028090C9437290F931F93CF93DF93209101
:1035C0000805222329F1162FEC0180910305882399
:1035D00081F0809127098617D8F000E080910205DC
:1035E000081728F4802F0E94F1220F5FF7CF109266
:1035F000030510932709D0930705C0930605D093C0
:103600000505C09304050E941A2381E080930305F9
:10361000DF91CF911F910F9108952091250930E0FE
:10362000209530954091260950E02423352390E0E1
:103630002823392381E0232B09F480E00895803882
:10364000910588F4FC01E35EFA4F90E48FEF20814E
:10365000822B80839850E058FF4F992321F09830B7
:10366000ACF78FE7F4CF08950F93CF93DF9397FFD5
:103670000DC0E42FF0E0AA27BB27A81BB90BAE179B
:10368000BF070CF07CC0480F80E090E077FF0FC0D0
:10369000AA27BB27A61BB70BE22F022E000CFF0B9D
:1036A000AE17BF070CF06BC0260F60E070E044233C
:1036B00009F465C0803891050CF061C012160CF059
:1036C0005EC0603471050CF05AC0FC01E40FF11DBE
:1036D000E138F10514F040E8481BFB01E20FF11D51
:1036E00027FDFA95E134F10514F020E4261B562F4E
:1036F00057703FEF052E01C0330F0A94EAF7250FEC
:10370000651B710977FF02C0695F7F4F53E07595B4
:1037100067955A95E1F77695762F662777956795A1
:10372000680F791F635E7A4FA8E0B0E0CFEFD0E07A
:1037300012162CF5283064F4CD01821B910927FD67
:103740009395FE0102C0F595E7958A95E2F73E2331
:10375000942F960F011108C03095FB0180818323BF
:1037600081939E13FBCF06C0FB018081832B819345
:103770009E13FBCF285060587F4F3FEFD9CFDF918A
:10378000CF910F910895EF92FF920F931F93CF93D4
:10379000DF93F999FECFC0912809D09129097E01C4
:1037A0002FEFE21AF20AF0922909E0922809CE01DD
:1037B0000E942F29082F10E0F999FECF2296D0936E
:1037C0002909C0932809C7010E942F299801382B85
:1037D000C901DF91CF911F910F91FF90EF90089554
:1037E000CF93DF931F92CDB7DEB799830E94CB1A98
:1037F0009981892F0F90DF91CF910C94CB1A1F9351
:10380000CF93DF9300D0CDB7DEB7182F862F798303
:103810009A830E94CB1A7981872F0E94CB1A812F1D
:103820000E94CB1A9A81892F0F900F90DF91CF9130
:103830001F910C94CB1A4F925F926F927F928F924E
:103840009F92AF92BF92CF92DF92EF92FF92CF936F
:10385000DF93EC014A015B0181E0809301052E01B9
:10386000612C712C60E072E18AE790E0A301920183
:103870000E94452969017A0181E0C81AD108E1084E
:10388000F108C114D10481E0E806F10488F068E48D
:1038900078EE81E090E0A30192010E944529690140
:1038A0007A0181E0C81AD108E108F10883E001C07B
:1038B00081E090918100987F982B909381008114F2
:1038C0009104A104B10471F0DE01AA0FBB1FA50190
:1038D00094010E94642928EE33E040E050E00E9409
:1038E000772903C02FEF3FEFA901D0928900C09242
:1038F00088002093FD043093FE044093FF0450930E
:10390000000580916F00826080936F00DF91CF91FE
:10391000FF90EF90DF90CF90BF90AF909F908F90EF
:103920007F906F905F904F9008952F923F924F92AB
:103930005F926F927F928F929F92AF92BF92CF923F
:10394000DF92EF92FF920F931F93CF93DF93CDB748
:10395000DEB728970FB6F894DEBF0FBECDBF222E7C
:10396000312C9C01220D331D37FD30C1803891056B
:103970000CF02CC19B01200F311D37FD27C1603495
:1039800071050CF023C1DB0177FF04C0AA27BB2718
:10399000A61BB70BA770BB279B0177FF02C0295F4F
:1039A0003F4F13E0359527951A95E1F777FF08C04B
:1039B0002150310968E070E05B01AA1ABB0AD50109
:1039C000E02FE695E695E695CE2ED12C077019F0FE
:1039D0000FEFC01AD00AB9017695762F6627779532
:1039E0006795680F791F5601A20EB31EBC82AB8289
:1039F000412C512CF8E0CF2ED12C86010A1B1B0B39
:103A00001A830983AB80BC802A153B0509F4DEC00C
:103A10002830310509F4DAC02F3F1FEF31070CF4CD
:103A2000CAC03B01E0E86E0E711C8B0103561A4FB1
:103A30001E830D834C0100E010E0021513050CF00D
:103A4000BAC0E0E88E16910409F4B5C097FCA8C08E
:103A50002F3FFFEF3F0709F4B5C0F801E40DF51D56
:103A6000CD80DE80C618D708AA24A394E40FF51FE2
:103A7000EA1013C0E491C60ED71EF0E05F010A2ED3
:103A800002C0AA0CBB1C0A94E2F7B886AF82F6010A
:103A9000B080EF81F885EB292BC0E11017C0E491CD
:103AA000C60ED71EF0E00A2E02C0EE0FFF1F0A94CA
:103AB000E2F75F01A094B094B886AF82F601A080CF
:103AC000B12CEF81F885AE22BF2213C0E491C60E5F
:103AD000D71EF0E05F010A2E02C0AA0CBB1C0A949C
:103AE000E2F7B886AF82F601B080EF81F885EB256A
:103AF0005F01F601A082109709F452C0273031050A
:103B000009F44EC0F801E40DF51DAA24A394EA10AF
:103B100011C0E40FF51FE491CE2ED12C560109807F
:103B200002C0B594A7940A94E2F7ED81FE81D0809B
:103B3000AD2835C0CD80DE80C618D708E40FF51F4C
:103B4000E11018C0E491C60CD71CAE2EB12C098030
:103B500002C0B594A7940A94E2F7F501E095F095B8
:103B6000F887EF83F601A080B12CEF81F885AE22B3
:103B7000BF2214C0E491C60CD71CAE2EB12CF501A7
:103B8000098002C0F595E7950A94E2F7F887EF837C
:103B9000F601B080EF81F885EB255F01F601A08288
:103BA0000F5F1F4FED81FE813196FE83ED83FFEFA6
:103BB0008F1A9F0A42CF2F5F3F4F420C531C605811
:103BC0007F4F20CF109709F09DCFEACF28960FB6F0
:103BD000F894DEBF0FBECDBFDF91CF911F910F9143
:103BE000FF90EF90DF90CF90BF90AF909F908F901D
:103BF0007F906F905F904F903F902F900895AF927D
:103C0000BF92CF92DF92EF920F931F93CF93DF93E8
:103C10005C018B01C42ED12C6A30710594F0CB016C
:103C20006AE070E00E94A8295BEF96015203C00190
:103C3000539F900D11248A0D9B1D0E94FF1DEC01C6
:103C400002C0C0E0D0E0C8016AE070E00E94A8298C
:103C500024E1289FA001299F500D112447585F4E51
:103C6000EE24E3940EE02AE060E070E0C5018C0FE2
:103C70009D1F0E94951C2A962BEFA6012403C001CC
:103C8000259F900D11248C0F9D1FDF91CF911F91C7
:103C90000F91EF90DF90CF90BF90AF90089520E00C
:103CA0008DE195E0B22FB111BFEFFC010024B1937B
:103CB000B193B193B1930394D1F70895CF93DF9368
:103CC00090910205923009F46EC0C82F292F30E080
:103CD000F901E958FF4ED491F901EA5CF64F80836F
:103CE0009F5F9093020561E00E946C20D13019F033
:103CF000D33039F158C01092800010928100809129
:103D00008100886080938100809181008160809330
:103D100081008C2F90E0FC01E85AFF4EE491F0E026
:103D2000EE0FFF1FE65BFF4E259134913093FC04AC
:103D30002093FB04FC01E55DFF4E84918093FA041F
:103D400032C0109290001092910080919100886092
:103D500080939100809191008160809391008C2FDD
:103D600090E0FC01E85AFF4EE491F0E0EE0FFF1FF7
:103D7000E65BFF4E259134913093F9042093F804CB
:103D8000FC01E55DFF4E84918093F704809102056C
:103D9000882321F06CE380E00E94062280E0DF911E
:103DA000CF910C94F122DF91CF9108958F929F9241
:103DB000AF92BF920F931F93CF93DF93CDB7DEB730
:103DC000A1970FB6F894DEBF0FBECDBF19A2423047
:103DD00008F44AE08E010F5D1F4F842E912CA12C18
:103DE000B12CA50194010E947729E62FB901CA01DF
:103DF00001501109EA3014F4E05D01C0E95CD8011A
:103E0000EC93232B242B252B61F7B80189E095E057
:103E10000E94F41FA1960FB6F894DEBF0FBECDBF6F
:103E2000DF91CF911F910F91BF90AF909F908F9096
:103E30000895FC018091F604811103C08FEF9FEF7C
:103E400008959FB7F89482E08093E9002091F200F2
:103E500030E01216130614F421E030E0211531058C
:103E600059F0289884E68093F5048091F1008083CE
:103E70008091F200882319F09FBFC90108958BE655
:103E80008093E800F9CF2FB7F89483E08093E9009E
:103E90009091E800892F807295FF04C09091F20004
:103EA00080E4891B2FBF089580912E0981110DC0D8
:103EB00082E080932A0984E080932B0910922D09D7
:103EC00010922C0981E080932E098AE299E00895EE
:103ED000CF92DF92EF92FF920F931F93CF93DF93D6
:103EE0006C017A018B01C0E0D0E0CE15DF0589F0CE
:103EF000D8016D918D01D601ED91FC910190F08179
:103F0000E02DC6010995892B11F47E0102C021968E
:103F1000ECCFC701DF91CF911F910F91FF90EF90F0
:103F2000DF90CF9008950E94D6294091EF045091E0
:103F3000F0042091ED043091EE0442175307B4F4DD
:103F40009091E8009570E1F39091E80092FD19C01E
:103F50008093F1008091EF049091F00401968F73AB
:103F60009927892B19F48EEF8093E8008091EF0454
:103F70009091F00401969093F0048093EF0481E017
:103F8000089580E00895615030F02091F100FC0127
:103F900020830196F8CF289884E68093F50408954D
:103FA000EF92FF920F931F93CF93DF938C017B01CE
:103FB000C0E0D0E0F701EC0FFD1F6491662361F0D3
:103FC000D801ED91FC910190F081E02DC801099597
:103FD000892B11F02196EECFCE01DF91CF911F9169
:103FE0000F91FF90EF9008956115710579F0FB0135
:103FF00001900020E9F73197AF01461B570BDC0118
:10400000ED91FC910280F381E02D099480E090E035
:104010000895362F90E0FC01EF5BFE4E4491FC01C9
:10402000E55DFF4E2491FC01E85AFF4E8491882300
:1040300009F451C04423E1F150E0FA013197EF3027
:10404000F105B0F5EA5AFF4F0C94BC29909180001D
:104050009F7707C0909180009F7D03C09091800062
:10406000977F9093800024C094B59F7702C094B549
:104070009F7D94BD1DC0909190009F7707C0909147
:1040800090009F7D03C090919000977F9093900047
:104090000FC09091C0009F7703C09091C0009F7D9A
:1040A0009093C00005C09091C200977F9093C2008A
:1040B000E82FF0E0EE0FFF1FE65BFF4EA591B491F5
:1040C0008FB7F894EC91311103C020952E2301C0D5
:1040D0002E2B2C938FBF0895CF93DF9390E0FC019C
:1040E000E55DFF4E2491FC01E85AFF4E8491882340
:1040F00061F190E0880F991FFC01E05AFE4EC591D6
:10410000D491FC01E65BFF4EA591B491611109C009
:104110009FB7F8948881209582238883EC912E2381
:104120000BC0623061F49FB7F8943881822F80957C
:1041300083238883EC912E2B2C939FBF06C08FB7CF
:10414000F894E8812E2B28838FBFDF91CF910895BB
:104150001F93CF93DF93182FEB0161E00E946C2037
:10416000209711F460E004C0CF3FD10539F461E03D
:10417000812FDF91CF911F910C940920E12FF0E066
:10418000EF5BFE4EE4914E2F50E0FA013197EF3095
:10419000F10508F06CC0EB59FF4F0C94BC2984B5B5
:1041A000806884BDC7BD68C084B5806284BDC8BD59
:1041B00063C080918000806880938000D0938900E4
:1041C000C093880059C080918000806280938000F5
:1041D000D0938B00C0938A004FC08091800088608C
:1041E00080938000D0938D00C0938C0045C0809157
:1041F0009000806880939000D0939900C0939800BD
:104200003BC080919000806280939000D0939B008F
:10421000C0939A0031C08091900088608093900094
:10422000D0939D00C0939C0027C08091C0008068FF
:104230008093C0008091C0008F7B8093C000C093AA
:10424000CF001AC08091C00080628093C000C093EC
:10425000D00012C08091C20088608093C20080911B
:10426000C2008B7F8093C200C093D20005C0C038CB
:10427000D1050CF07CCF76CFDF91CF911F910895BF
:104280003FB7F8948091B9099091BA09A091BB0900
:10429000B091BC0926B5A89B05C02F3F19F0019627
:1042A000A11DB11D3FBFBA2FA92F982F8827820FBC
:1042B000911DA11DB11DBC01CD0142E0660F771F0C
:1042C000881F991F4A95D1F708958F929F92AF92B8
:1042D000BF92CF92DF92EF92FF926B017C010E941E
:1042E00040214B015C01C114D104E104F104F1F05F
:1042F0000E944021DC01CB0188199909AA09BB0958
:10430000883E9340A105B10570F321E0C21AD1089F
:10431000E108F10888EE880E83E0981EA11CB11C0C
:10432000C114D104E104F10419F7DDCFFF90EF903F
:10433000DF90CF90BF90AF909F908F9008951F9285
:104340000F920FB60F9211242F933F938F939F9349
:10435000AF93BF938091890990918A09A0918B09AD
:10436000B0918C093091B80923E0230F2D3720F448
:104370000196A11DB11D05C026E8230F0296A11DBF
:10438000B11D2093B8098093890990938A09A0935D
:104390008B09B0938C098091B9099091BA09A091C9
:1043A000BB09B091BC090196A11DB11D8093B9094B
:1043B0009093BA09A093BB09B093BC09BF91AF9188
:1043C0009F918F913F912F910F900FBE0F901F9053
:1043D00018958FB12CB193B130E0209530952074B1
:1043E0003327A90123E0559547952A95E1F7292F11
:1043F00030E02095309520713327359527953595F8
:104400002795242B8095807F822B0895CF92DF9271
:10441000EF92FF920F931F93CF93E82FF0E0E958AC
:10442000FF4EC491E62FF0E0603330F4E25DF84EC9
:10443000E4910E2F10E006C0EE0FFF1FE25DF94E73
:10444000059114916801E12CF12C60E074E284EF95
:1044500090E0A70196010E944529BA01A9014150A7
:104460005109610971094115510581E0680771051C
:1044700080F060E970ED83E090E0A70196010E9472
:104480004529BA01A901415051096109710983E027
:1044900001C081E0C130C9F0C33031F59091910085
:1044A000987F892B809391005093990040939800B6
:1044B0001093B7090093B60981E08093B509809104
:1044C00071008260809371000FC090918100987F8D
:1044D000892B8093810050938900409388008091BC
:1044E0006F00826080936F00CF911F910F91FF90BA
:1044F000EF90DF90CF9008951F920F920FB60F921A
:1045000011242F933F938F939F93AF93BF93EF9378
:10451000FF9380910105882309F44DC08091FD042B
:104520009091FE04A091FF04B0910005892B8A2B85
:104530008B2B51F18091FA04E091FB04F091FC0483
:104540009081892780838091FD049091FE04A09141
:10455000FF04B0910005181619061A061B06A4F5EB
:104560008091FD049091FE04A091FF04B09100059C
:104570000197A109B1098093FD049093FE04A093D3
:10458000FF04B093000520C01092010580916F00D8
:104590008D7F80936F009091FA04E091FB04F0917D
:1045A000FC048081282F30E0892F90E08095909541
:1045B0008223932308C08091FA04E091FB04F091D8
:1045C000FC04908189278083FF91EF91BF91AF9187
:1045D0009F918F913F912F910F900FBE0F901F9041
:1045E0001895E82FF0E0E958FF4EE491E13019F01A
:1045F000E33069F0089580916F008D7F80936F00A4
:104600009091FA04E091FB04F091FC0408C0109230
:10461000B5099091F704E091F804F091F9048081D4
:10462000282F30E0892F90E0809590958223932366
:1046300080830895E0910405F0910505BF016F5F47
:104640007F4F70930505609304054491942F907FEC
:10465000842F8F70903819F40E94F122EBCF90399B
:1046600081F43296F0930505E0930405FB01649113
:10467000909102058917F0F667FDDCCF0E940622B3
:10468000D9CF903E49F4809106059091070590930B
:10469000050580930405CECF903F19F410920305D1
:1046A000089597FDC7CF3296F0930505E093040572
:1046B000FB01249130E0342BA091B609B091B709E9
:1046C0000E9499296C507E4F8F4F9F4F28EE33E008
:1046D00040E050E00E9477292093B1093093B2095D
:1046E0004093B3095093B4098091B1099091B209F4
:1046F000A091B309B091B409892B8A2B8B2B61F45B
:1047000081E090E0A0E0B0E08093B1099093B2091D
:10471000A093B309B093B40908951F920F920FB6F6
:104720000F9211242F933F934F935F936F937F9337
:104730008F939F93AF93BF93EF93FF938091B509AE
:10474000882349F08091F704E091F804F091F9048E
:1047500090818927808380910305882329F18091A6
:10476000B1099091B209A091B309B091B409892B14
:104770008A2B8B2BC9F08091B1099091B209A0913D
:10478000B309B091B4090197A109B1098093B109A6
:104790009093B209A093B309B093B409892B8A2BE3
:1047A0008B2B11F40E941A23FF91EF91BF91AF91CF
:1047B0009F918F917F916F915F914F913F912F9139
:1047C0000F900FBE0F901F90189510920805E4E609
:1047D000F0E0808188608083E5E6F0E08081886099
:1047E00080830895E4E6F0E08081877F8083E5E6BA
:1047F000F0E08081877F808381E0809308050895C1
:104800006038710518F54034510500F5A42FA695C0
:10481000A695A695B0E047705527B695BA2FAA275A
:10482000B795A7956A0F7B1FFC01E60FF71F81E084
:1048300090E001C0880F4A95EAF7222319F0948985
:10484000892B03C0809594898923848B08952F92A6
:104850003F924F925F926F927F928F929F92AF9210
:10486000BF92CF92DF92EF92FF920F931F93CF935D
:10487000DF93CDB7DEB72A970FB6F894DEBF0FBE31
:10488000CDBF6A3091F4FC01E85EFB4F4081329766
:104890002081318158E0459F200D311D1124318345
:1048A0002083329711821082C1C06D3009F4BEC0DE
:1048B0009A878987885E9B4F9C838B83DC012C9031
:1048C000E985FA85EA5EFB4F60807180E985FA85AB
:1048D000EC5EFB4FFA83E9830081118100381105FA
:1048E000D4F0AB81BC812C91422F50E0E981FA8158
:1048F00080819181F6E02F9F800D911D1124A98167
:10490000BA818D939C93E985FA85E75EFB4F208100
:1049100021115EC08BC0B0E46B16710414F7C8019E
:10492000E5E02E9E800D911D112418161906CCF677
:10493000422C512CC301F8E02F9E800D911D1124B3
:104940001816190674F655E0659F900111243F83EF
:104950002E83E12CF12C85E0E816F10441F0EE8184
:10496000FF81EE0DFF1DE257FE4E349001C0312C49
:10497000630138E0932D91709D834801882D801B41
:104980008215B0F456018A2D8C19821568F42D8198
:10499000A501B40189859A8538870E940024AFEF6C
:1049A000AA1ABA0A3885EFCFBFEF8B1A9B0AE6CF57
:1049B00036943150C40CD51C3111DCCFEFEFEE1A18
:1049C000FE0A040D151DF6E0EF16F10421F689CF5D
:1049D0006AEF64039001659F300D112420583F4F0A
:1049E000281739071CF5A985BA85ED91FC91119717
:1049F0000190F081E02D6AE0CD012A960FB6F8947F
:104A0000DEBF0FBECDBFDF91CF911F910F91FF9001
:104A1000EF90DF90CF90BF90AF909F908F907F905E
:104A20006F905F904F903F902F9009942A960FB609
:104A3000F894DEBF0FBECDBFDF91CF911F910F91D4
:104A4000FF90EF90DF90CF90BF90AF909F908F90AE
:104A50007F906F905F904F903F902F9008950F93AD
:104A60001F93CF93DF9380E493E090932909809381
:104A700028090E94C31BEC010E94C31BA0E0B0E008
:104A8000DC0199278827AE0160E070E0842B952B2C
:104A9000A62BB72B8F349244AE44B34019F0EDE906
:104AA000F9E04AC0C3E0D0E00BEE18E40E94C31B5B
:104AB0009C01C29FC001C39F900DD29F900D1124F5
:104AC000080F191F2196C031D10581F70E94C31B21
:104AD0008017910721F784E493E09093290980934C
:104AE0002809CDE9D9E00E94C31B8993999339E045
:104AF000C13BD307C1F70E94C31B90939C098093CD
:104B00009B090E94C31BEC010E94C31BA0E0B0E004
:104B1000DC0199278827AE0160E070E0842B952B9B
:104B2000A62BB72B8093970990939809A093990986
:104B3000B0939A0982E013C01192119289E0E13B8F
:104B4000F807D1F710929C0910929B0910929709CF
:104B5000109298091092990910929A0981E0809315
:104B60009609DF91CF911F910F91089544E150E094
:104B700060E070E08BE492E00C941B1CE8E3F9E049
:104B80001382128288EE93E0A0E0B0E084839583E4
:104B9000A683B7838FE191E0918380838FEF9FEFAE
:104BA00095878487E9E0F5E0138212828CE386839F
:104BB00080E181871086178216861786108A118AEF
:104BC000128A10921E0910921D091092200910924B
:104BD0001F0981E08093210921E331E031832083A3
:104BE000809323091092240980E190E09093290991
:104BF000809328090895CF93DF931F92CDB7DEB736
:104C0000789484B5826084BD84B5816084BD85B5A7
:104C1000826085BD85B5816085BD80916E008160B3
:104C200080936E0010928100809181008260809359
:104C3000810080918100816080938100809180005B
:104C400081608093800080919100826080939100C8
:104C500080919100816080939100809190008160AB
:104C6000809390008091C10084608093C100809106
:104C7000C10082608093C1008091C10081608093F7
:104C8000C1008091C30081608093C3008091C00007
:104C900082608093C0008091C20081608093C200D6
:104CA00080917A00846080937A0080917A0082609B
:104CB00080937A0080917A00816080937A0080915D
:104CC0007A00806880937A001092F6041092F204C1
:104CD0001092F3048091D70081608093D70080EA1E
:104CE0008093D80089B5806189BD89B5826089BD0E
:104CF00009B400FEFDCF61E070E080E090E00E942A
:104D000065218091D8008F7C80618093D80080914C
:104D1000E000807F8093E0008091E1008E7E8093B0
:104D2000E1008DE08093E200559A209AEEEFFFE7D4
:104D3000859194918B3F9C4D19F481E08093F1040F
:104D40001FB7F89480918D09811127C0E9E6F0E141
:104D50008491ECE3F0E19491E82FF0E0EE0FFF1F77
:104D6000E05AFE4EA591B491EC91E92321F461E063
:104D700081E10E94092061E081E10E946C208CB5F4
:104D800080618CBD8CB580648CBD61E08FE00E9439
:104D90006C2061E080E10E946C2080918D098F5F22
:104DA00080938D091FBF0BE711E1F80184910E5F1D
:104DB0001F4F31966491882319F00E946C20F5CF23
:104DC00061E086E00E94092061E070E080E090E010
:104DD0000E94652160E086E00E9409206AE070E0A0
:104DE00080E090E00E94652161E086E00E94092059
:104DF000E4E6F0E1E491F0E0EE0FFF1FE65BFF4E2A
:104E0000859194919093930980939209E7E3F0E15F
:104E1000E491E0939109ECE5F0E1E491F0E0EE0F2C
:104E2000FF1FE65BFF4E85919491909390098093CC
:104E30008F09EFE2F0E1E491E0938E098CB58C7F6D
:104E40008CBD8DB581608DBDE0919209F091930983
:104E5000908180919109982B9083A0918F09B091B6
:104E600090092C9190918E09909592239C9390811A
:104E7000809589238083EEE6F1E121E1EB37F207AB
:104E800049F084918EBD00000DB407FEFDCF8EB5B4
:104E90003196F3CFE0918F09F09190099081809144
:104EA0008E09892B8083E0919209F091930990817A
:104EB000809191098095892380838091640081602D
:104EC000809364008091640082608093640080918C
:104ED00064008068809364008091640080648093A3
:104EE0006400809165008160809365000E94E921E3
:104EF00087FF1AC080E094E01EBC00000DB407FEDE
:104F0000FDCF2EB50197C1F760E070E08AE00E9406
:104F1000A82060E070E08BE00E94A82060E070E0D4
:104F200089E00E94A820FFCF85E00E945E1E8DE0F0
:104F30000E945E1E1092030582E090E00E942F29DD
:104F400081110E94F2238CE380930F0580E180930E
:104F5000120588E78093880916E080E0E82E80E05B
:104F6000F82E01E02FB7F8948091890990918A0971
:104F7000A0918B09B0918C092FBF20911B05222392
:104F800091F020911305382F321B30931C0520918E
:104F90001005309111052F5F3F4F3093110520937D
:104FA000100510921B05409117055091180560914E
:104FB000190570911A0584179507A607B7077CF4A1
:104FC000481B423008F47AC083B7817F83BF83B720
:104FD000816083BF889583B78E7F83BF6FC0209128
:104FE0001205AC01BD01420F511D611D711D4093A1
:104FF0001705509318056093190570931A0580934F
:10500000130590931405A0931505B093160500930E
:105010001B0580912609809325090E94E921809330
:1050200026098091940990919509189FF001199F84
:10503000F00D1124E75CFE4F0280F381E02D09950D
:105040002091940930919509129FF001139FF00D62
:105050001124E75CFE4F0480F581E02D89830995DA
:1050600090911D059EBDEEE1F5E0898191910DB411
:1050700007FEFDCF9EBD99E0ED31F907B9F70DB4FC
:1050800007FEFDCF8823D1F0809194099091950976
:10509000019719F081E090E002C082E090E09093E7
:1050A000950980939409189FF001199FF00D112420
:1050B000E75CFE4F0190F081E02D0995E114F104C9
:1050C00009F450CF0E9400004DCF8F929F92AF9273
:1050D000BF92CF92DF92EF92FF92CF93DF93EC01DA
:1050E000688179818A819B816115710581059105AE
:1050F00021F464E279ED8BE597E02DE133EF41E0B7
:1051000050E00E94452949015A019B01AC01A7EAE0
:10511000B1E40E9464296B017C01ACEEB4EFA501FF
:1051200094010E947229DC01CB018C0D9D1DAE1DE6
:10513000BF1DB7FF03C00197A109B04888839983B9
:10514000AA83BB839F77DF91CF91FF90EF90DF9091
:10515000CF90BF90AF909F908F9008950E94652848
:1051600008958CE091E00E9465280895A0E0B0E0E9
:1051700080930C0190930D01A0930E01B0930F0149
:1051800008958F929F92AF92BF92CF92DF92EF924B
:10519000FF92CF93DF93EC01688179818A819B81B3
:1051A000611571058105910521F464E279ED8BE5C6
:1051B00097E02DE133EF41E050E00E94452949019D
:1051C0005A019B01AC01A7EAB1E40E9464296B017A
:1051D0007C01ACEEB4EFA50194010E947229DC01C0
:1051E000CB018C0D9D1DAE1DBF1DB7FF03C00197E8
:1051F000A109B04888839983AA83BB83BC01CD01F0
:105200009F77DF91CF91FF90EF90DF90CF90BF908D
:10521000AF909F908F9008950E94C128089580E1DB
:1052200091E00E94C12808956093100170931101CC
:1052300080931201909313010895FB01DC01059006
:105240000D920020E1F70895FC016150704001903B
:105250000110D8F7809590958E0F9F1F0895F999AA
:10526000FECF92BD81BDF89A992780B50895262F6B
:10527000F999FECF1FBA92BD81BD20BD0FB6F8943B
:10528000FA9AF99A0FBE01960895052E97FB1EF41F
:1052900000940E945C2957FD07D00E94772907FCE3
:1052A00003D04EF40C945C2950954095309521958F
:1052B0003F4F4F4F5F4F0895909580957095619542
:1052C0007F4F8F4F9F4F08950E949929A59F900D62
:1052D000B49F900DA49F800D911D11240895B7FFD8
:1052E0000C9464290E946429821B930B0895A1E207
:1052F0001A2EAA1BBB1BFD010DC0AA1FBB1FEE1F50
:10530000FF1FA217B307E407F50720F0A21BB30B9A
:10531000E40BF50B661F771F881F991F1A9469F716
:1053200060957095809590959B01AC01BD01CF0172
:105330000895A29FB001B39FC001A39F700D811D6E
:105340001124911DB29F700D811D1124911D08958E
:1053500097FB072E16F4009407D077FD09D00E9422
:10536000C22907FC05D03EF4909581959F4F089582
:10537000709561957F4F0895EE0FFF1F0590F49192
:10538000E02D0994AA1BBB1B51E107C0AA1FBB1F3C
:10539000A617B70710F0A61BB70B881F991F5A95C1
:1053A000A9F780959095BC01CD01089581E090E02A
:1053B000F8940C94A82CAEE0B0E0E1EEF9E20C9485
:1053C0007F2C0D891E8986E08C831A8309838FEFD9
:1053D0009FE79E838D83AE01475E5F4F6F89788D17
:1053E000CE0101960E94FE292F813885F801E20F37
:1053F000F31F10822E96E4E00C949B2CACE0B0E0FE
:10540000E4E0FAE20C94712C7C016B018A01FC014E
:1054100017821682838181FFBDC1CE0101964C01A6
:10542000F7019381F60193FD859193FF81916F01BF
:10543000882309F4ABC1853239F493FD859193FF3C
:1054400081916F01853229F4B70190E00E94DB2B36
:10545000E7CF512C312C20E02032A0F48B3269F0C0
:1054600030F4803259F0833269F420612CC08D32DF
:1054700039F0803339F4216026C02260246023C0D3
:10548000286021C027FD27C030ED380F3A3078F46E
:1054900026FF06C0FAE05F9E300D1124532E13C084
:1054A0008AE0389E300D1124332E20620CC08E32DB
:1054B00021F426FD6BC1206406C08C3611F42068EF
:1054C00002C0883641F4F60193FD859193FF8191E6
:1054D0006F018111C1CF982F9F7D9554933028F48F
:1054E0000C5F1F4FFFE3F9830DC0833631F0833724
:1054F00071F0833509F05BC022C0F8018081898397
:105500000E5F1F4F44244394512C540115C03801A1
:10551000F2E06F0E711CF801A080B18026FF03C07D
:10552000652D70E002C06FEF7FEFC5012C870E94F0
:1055300024292C0183012C852F77222E17C03801B6
:10554000F2E06F0E711CF801A080B18026FF03C04D
:10555000652D70E002C06FEF7FEFC5012C870E94C0
:10556000D02B2C012C852068222E830123FC1BC00C
:10557000832D90E048165906B0F4B70180E290E020
:105580000E94DB2B3A94F4CFF50127FC859127FE8E
:1055900081915F01B70190E00E94DB2B31103A94BA
:1055A000F1E04F1A51084114510471F7E5C08436F7
:1055B00011F0893639F5F80127FF07C06081718144
:1055C000828193810C5F1F4F08C060817181072E1B
:1055D000000C880B990B0E5F1F4F2F76722E97FFD2
:1055E00009C090958095709561957F4F8F4F9F4F23
:1055F0002068722E2AE030E0A4010E94132CA82E0D
:10560000A81844C0853729F42F7EB22E2AE030E056
:1056100025C0F22FF97FBF2E8F36C1F018F48835E0
:1056200079F0B4C0803719F0883721F0AFC02F2F40
:105630002061B22EB4FE0DC08B2D8460B82E09C03F
:1056400024FF0AC09F2F9660B92E06C028E030E0E4
:1056500005C020E130E002C020E132E0F801B7FEF1
:1056600007C060817181828193810C5F1F4F06C0EA
:105670006081718180E090E00E5F1F4FA4010E9465
:10568000132CA82EA818FB2DFF777F2E76FE0BC0BB
:10569000372D3E7FA51450F474FE0AC072FC08C07A
:1056A000372D3E7E05C0BA2C372D03C0BA2C01C061
:1056B000B52C34FF0DC0FE01EA0DF11D8081803351
:1056C00011F4397E09C032FF06C0B394B39404C00C
:1056D000832F867809F0B39433FD13C030FF06C0E2
:1056E0005A2CB31418F4530C5B18B32CB31468F48D
:1056F000B70180E290E03C870E94DB2BB3943C85AD
:10570000F5CFB31410F43B1801C0312C34FF12C094
:10571000B70180E390E03C870E94DB2B3C8532FFA1
:1057200017C031FD03C088E790E002C088E590E033
:10573000B7010CC0832F867859F031FF02C08BE28D
:1057400001C080E237FD8DE2B70190E00E94DB2BC3
:10575000A51438F4B70180E390E00E94DB2B5A9443
:10576000F7CFAA94F401EA0DF11D8081B70190E012
:105770000E94DB2BA110F5CF332009F451CEB701E5
:1057800080E290E00E94DB2B3A94F6CFF70186810D
:10579000978102C08FEF9FEF2C96E2E10C948D2C45
:1057A000FC010590615070400110D8F780959095EC
:1057B0008E0F9F1F08950F931F93CF93DF93FB01CD
:1057C000238121FD03C08FEF9FEF28C022FF16C069
:1057D00046815781248135814217530744F4A081C3
:1057E000B1819D012F5F3F4F318320838C932681B0
:1057F00037812F5F3F4F3783268310C0EB01092F7E
:10580000182F0084F185E02D0995892BE1F68E8112
:105810009F8101969F838E83812F902FDF91CF915F
:105820001F910F910895FA01AA27283051F12031D4
:1058300081F1E8946F936E7F6E5F7F4F8F4F9F4F24
:10584000AF4FB1E03ED0B4E03CD0670F781F891F66
:105850009A1FA11D680F791F8A1F911DA11D6A0F34
:10586000711D811D911DA11D20D009F468943F91E7
:105870002AE0269F11243019305D3193DEF6CF01E6
:105880000895462F4770405D4193B3E00FD0C9F7AC
:10589000F6CF462F4F70405D4A3318F0495D31FD19
:1058A0004052419302D0A9F7EACFB4E0A69597956C
:1058B000879577956795BA95C9F700976105710542
:1058C00008959B01AC010A2E06945795479537958C
:1058D0002795BA95C9F7620F731F841F951FA01DE6
:1058E00008952F923F924F925F926F927F928F9284
:1058F0009F92AF92BF92CF92DF92EF92FF920F935F
:105900001F93CF93DF93CDB7DEB7CA1BDB0B0FB668
:10591000F894DEBF0FBECDBF09942A883988488825
:105920005F846E847D848C849B84AA84B984C884BB
:10593000DF80EE80FD800C811B81AA81B981CE0FB2
:10594000D11D0FB6F894DEBF0FBECDBFED01089597
:04595000F894FFCFF9
:10595400FFFFFFFF00E10000000000000100000065
:105964000100000000C18081000000000000008DE3
:1059740016C8164D17A316AE16751751170000005A
:1059840000A50F681FDF0BDE0BDA0B5F0FE20B6164
:105994000E7D0E5A0C3A169E12ED102725303264F5
:0259A4002200DF
:2070000055C000006EC000006CC000006AC0000068C0000066C0000064C0000062C0000043
:2070200060C000005EC00000F2C400005AC0000058C0000056C0000054C0000052C00000EE
:2070400050C0000078C000004CC000004AC0000048C0000046C0000044C0000042C00000BE
:2070600040C000003EC000003CC000003AC0000038C0000036C0000034C0000032C0000048
:2070800030C000002EC000002CC000002AC0000028C0000026C0000024C0000022C00000A8
:2070A00020C000001EC000001CC0000011241FBECFEFDAE0DEBFCDBF11E0A0E0B1E0E2E3BC
:2070C000FFE702C005900D92A83AB107D9F711E0A8EAB1E001C01D92AE3BB107E1F78FD30B
:2070E00026C78ECFF89410926F0010928100109285001092840081E085BF15BE47985D9AEB
:20710000289A0C94000008952091B2013091B3012F5F3F4F3093B3012093B201932F37FFA6
:2071200003C08EEF831B982F990F921710F447980895479A08951F920F920FB60F9211246E
:207140002F938F939F93EF93FF9310928500109284008091A8019091A901009741F00197D3
